{
	"ifElse.sol": {
		"ifElse": {
			"abi": [
				{
					"inputs": [],
					"name": "condition",
					"outputs": [
						{
							"internalType": "bool",
							"name": "value",
							"type": "bool"
						}
					],
					"stateMutability": "view",
					"type": "function"
				}
			],
			"devdoc": {
				"kind": "dev",
				"methods": {},
				"version": 1
			},
			"evm": {
				"assembly": "    /* \"ifElse.sol\":61:389  contract ifElse{... */\n  mstore(0x40, 0x80)\n    /* \"ifElse.sol\":97:98  4 */\n  0x04\n    /* \"ifElse.sol\":83:98  uint256 Num1= 4 */\n  0x00\n  sstore\n    /* \"ifElse.sol\":119:120  7 */\n  0x07\n    /* \"ifElse.sol\":105:120  uint256 Num2= 7 */\n  0x01\n  sstore\n    /* \"ifElse.sol\":61:389  contract ifElse{... */\n  callvalue\n  dup1\n  iszero\n  tag_1\n  jumpi\n  0x00\n  dup1\n  revert\ntag_1:\n  pop\n  dataSize(sub_0)\n  dup1\n  dataOffset(sub_0)\n  0x00\n  codecopy\n  0x00\n  return\nstop\n\nsub_0: assembly {\n        /* \"ifElse.sol\":61:389  contract ifElse{... */\n      mstore(0x40, 0x80)\n      callvalue\n      dup1\n      iszero\n      tag_1\n      jumpi\n      0x00\n      dup1\n      revert\n    tag_1:\n      pop\n      jumpi(tag_2, lt(calldatasize, 0x04))\n      shr(0xe0, calldataload(0x00))\n      dup1\n      0xc5031331\n      eq\n      tag_3\n      jumpi\n    tag_2:\n      0x00\n      dup1\n      revert\n        /* \"ifElse.sol\":131:386  function condition() public view  returns(bool  value) {... */\n    tag_3:\n      tag_4\n      tag_5\n      jump\t// in\n    tag_4:\n      mload(0x40)\n      tag_6\n      swap2\n      swap1\n      tag_7\n      jump\t// in\n    tag_6:\n      mload(0x40)\n      dup1\n      swap2\n      sub\n      swap1\n      return\n    tag_5:\n        /* \"ifElse.sol\":173:184  bool  value */\n      0x00\n        /* \"ifElse.sol\":204:208  true */\n      0x01\n        /* \"ifElse.sol\":197:208  value= true */\n      swap1\n      pop\n        /* \"ifElse.sol\":228:230  10 */\n      0x0a\n        /* \"ifElse.sol\":223:227  Num2 */\n      sload(0x01)\n        /* \"ifElse.sol\":223:230  Num2<10 */\n      lt\n        /* \"ifElse.sol\":247:259  return value */\n      tag_8\n        /* \"ifElse.sol\":219:377  if (Num2<10) {... */\n      jumpi\n        /* \"ifElse.sol\":287:289  10 */\n      0x0a\n        /* \"ifElse.sol\":279:283  Num1 */\n      sload(0x00)\n        /* \"ifElse.sol\":279:289  Num1 == 10 */\n      sub\n        /* \"ifElse.sol\":276:377  if(Num1 == 10){... */\n      tag_11\n      jumpi\n        /* \"ifElse.sol\":317:322  false */\n      0x00\n        /* \"ifElse.sol\":309:322  return  false */\n      swap1\n      pop\n      jump(tag_8)\n        /* \"ifElse.sol\":276:377  if(Num1 == 10){... */\n    tag_11:\n        /* \"ifElse.sol\":361:365  true */\n      0x01\n        /* \"ifElse.sol\":353:365  return  true */\n      swap1\n      pop\n        /* \"ifElse.sol\":131:386  function condition() public view  returns(bool  value) {... */\n    tag_8:\n      swap1\n      jump\t// out\n        /* \"#utility.yul\":7:97   */\n    tag_13:\n        /* \"#utility.yul\":41:48   */\n      0x00\n        /* \"#utility.yul\":84:89   */\n      dup2\n        /* \"#utility.yul\":77:90   */\n      iszero\n        /* \"#utility.yul\":70:91   */\n      iszero\n        /* \"#utility.yul\":59:91   */\n      swap1\n      pop\n        /* \"#utility.yul\":7:97   */\n      swap2\n      swap1\n      pop\n      jump\t// out\n        /* \"#utility.yul\":103:212   */\n    tag_14:\n        /* \"#utility.yul\":184:205   */\n      tag_18\n        /* \"#utility.yul\":199:204   */\n      dup2\n        /* \"#utility.yul\":184:205   */\n      tag_13\n      jump\t// in\n    tag_18:\n        /* \"#utility.yul\":179:182   */\n      dup3\n        /* \"#utility.yul\":172:206   */\n      mstore\n        /* \"#utility.yul\":103:212   */\n      pop\n      pop\n      jump\t// out\n        /* \"#utility.yul\":218:428   */\n    tag_7:\n        /* \"#utility.yul\":305:309   */\n      0x00\n        /* \"#utility.yul\":343:345   */\n      0x20\n        /* \"#utility.yul\":332:341   */\n      dup3\n        /* \"#utility.yul\":328:346   */\n      add\n        /* \"#utility.yul\":320:346   */\n      swap1\n      pop\n        /* \"#utility.yul\":356:421   */\n      tag_20\n        /* \"#utility.yul\":418:419   */\n      0x00\n        /* \"#utility.yul\":407:416   */\n      dup4\n        /* \"#utility.yul\":403:420   */\n      add\n        /* \"#utility.yul\":394:400   */\n      dup5\n        /* \"#utility.yul\":356:421   */\n      tag_14\n      jump\t// in\n    tag_20:\n        /* \"#utility.yul\":218:428   */\n      swap3\n      swap2\n      pop\n      pop\n      jump\t// out\n\n    auxdata: 0xa2646970667358221220ba4f0ca2c903f8194ef2cd9c3ff670eee2d2461bc28b9801772af7a31759672d64736f6c634300081a0033\n}\n",
				"bytecode": {
					"linkReferences": {},
					"object": "608060405260045f5560076001553480156017575f80fd5b5060ce8060235f395ff3fe6080604052348015600e575f80fd5b50600436106026575f3560e01c8063c503133114602a575b5f80fd5b60306044565b604051603b91906081565b60405180910390f35b5f60019050600a60015410606657600a5f54036061575f90506066565b600190505b90565b5f8115159050919050565b607b816069565b82525050565b5f60208201905060925f8301846074565b9291505056fea2646970667358221220ba4f0ca2c903f8194ef2cd9c3ff670eee2d2461bc28b9801772af7a31759672d64736f6c634300081a0033",
					"opcodes": "PUSH1 0x80 PUSH1 0x40 MSTORE PUSH1 0x4 PUSH0 SSTORE PUSH1 0x7 PUSH1 0x1 SSTORE CALLVALUE DUP1 ISZERO PUSH1 0x17 JUMPI PUSH0 DUP1 REVERT JUMPDEST POP PUSH1 0xCE DUP1 PUSH1 0x23 PUSH0 CODECOPY PUSH0 RETURN INVALID PUSH1 0x80 PUSH1 0x40 MSTORE CALLVALUE DUP1 ISZERO PUSH1 0xE JUMPI PUSH0 DUP1 REVERT JUMPDEST POP PUSH1 0x4 CALLDATASIZE LT PUSH1 0x26 JUMPI PUSH0 CALLDATALOAD PUSH1 0xE0 SHR DUP1 PUSH4 0xC5031331 EQ PUSH1 0x2A JUMPI JUMPDEST PUSH0 DUP1 REVERT JUMPDEST PUSH1 0x30 PUSH1 0x44 JUMP JUMPDEST PUSH1 0x40 MLOAD PUSH1 0x3B SWAP2 SWAP1 PUSH1 0x81 JUMP JUMPDEST PUSH1 0x40 MLOAD DUP1 SWAP2 SUB SWAP1 RETURN JUMPDEST PUSH0 PUSH1 0x1 SWAP1 POP PUSH1 0xA PUSH1 0x1 SLOAD LT PUSH1 0x66 JUMPI PUSH1 0xA PUSH0 SLOAD SUB PUSH1 0x61 JUMPI PUSH0 SWAP1 POP PUSH1 0x66 JUMP JUMPDEST PUSH1 0x1 SWAP1 POP JUMPDEST SWAP1 JUMP JUMPDEST PUSH0 DUP2 ISZERO ISZERO SWAP1 POP SWAP2 SWAP1 POP JUMP JUMPDEST PUSH1 0x7B DUP2 PUSH1 0x69 JUMP JUMPDEST DUP3 MSTORE POP POP JUMP JUMPDEST PUSH0 PUSH1 0x20 DUP3 ADD SWAP1 POP PUSH1 0x92 PUSH0 DUP4 ADD DUP5 PUSH1 0x74 JUMP JUMPDEST SWAP3 SWAP2 POP POP JUMP INVALID LOG2 PUSH5 0x6970667358 0x22 SLT KECCAK256 0xBA 0x4F 0xC LOG2 0xC9 SUB 0xF8 NOT 0x4E CALLCODE 0xCD SWAP13 EXTCODEHASH 0xF6 PUSH17 0xEEE2D2461BC28B9801772AF7A31759672D PUSH5 0x736F6C6343 STOP ADDMOD BYTE STOP CALLER "
				},
				"gasEstimates": {
					"creation": {
						"codeDepositCost": "41200",
						"executionCost": "44302",
						"totalCost": "85502"
					},
					"external": {
						"condition()": "4578"
					}
				},
				"methodIdentifiers": {
					"condition()": "c5031331"
				}
			},
			"storageLayout": {
				"storage": [
					{
						"astId": 4,
						"contract": "ifElse.sol:ifElse",
						"label": "Num1",
						"offset": 0,
						"slot": "0",
						"type": "t_uint256"
					},
					{
						"astId": 7,
						"contract": "ifElse.sol:ifElse",
						"label": "Num2",
						"offset": 0,
						"slot": "1",
						"type": "t_uint256"
					}
				],
				"types": {
					"t_uint256": {
						"encoding": "inplace",
						"label": "uint256",
						"numberOfBytes": "32"
					}
				}
			},
			"userdoc": {
				"kind": "user",
				"methods": {},
				"version": 1
			}
		}
	}
}