{
	"Function.sol": {
		"Function": {
			"abi": [
				{
					"inputs": [
						{
							"internalType": "uint256",
							"name": "",
							"type": "uint256"
						}
					],
					"name": "arr",
					"outputs": [
						{
							"internalType": "uint256",
							"name": "",
							"type": "uint256"
						}
					],
					"stateMutability": "view",
					"type": "function"
				},
				{
					"inputs": [
						{
							"internalType": "uint256[]",
							"name": "_arr",
							"type": "uint256[]"
						}
					],
					"name": "arrayInput",
					"outputs": [],
					"stateMutability": "nonpayable",
					"type": "function"
				},
				{
					"inputs": [],
					"name": "arrayOutput",
					"outputs": [
						{
							"internalType": "uint256[]",
							"name": "",
							"type": "uint256[]"
						}
					],
					"stateMutability": "view",
					"type": "function"
				},
				{
					"inputs": [],
					"name": "assigned",
					"outputs": [
						{
							"internalType": "uint256",
							"name": "x",
							"type": "uint256"
						},
						{
							"internalType": "bool",
							"name": "b",
							"type": "bool"
						},
						{
							"internalType": "uint256",
							"name": "y",
							"type": "uint256"
						}
					],
					"stateMutability": "pure",
					"type": "function"
				},
				{
					"inputs": [],
					"name": "destructingAssignment",
					"outputs": [
						{
							"internalType": "uint256",
							"name": "",
							"type": "uint256"
						},
						{
							"internalType": "bool",
							"name": "",
							"type": "bool"
						},
						{
							"internalType": "uint256",
							"name": "",
							"type": "uint256"
						},
						{
							"internalType": "uint256",
							"name": "",
							"type": "uint256"
						},
						{
							"internalType": "uint256",
							"name": "",
							"type": "uint256"
						}
					],
					"stateMutability": "pure",
					"type": "function"
				},
				{
					"inputs": [],
					"name": "named",
					"outputs": [
						{
							"internalType": "uint256",
							"name": "x",
							"type": "uint256"
						},
						{
							"internalType": "bool",
							"name": "b",
							"type": "bool"
						},
						{
							"internalType": "uint256",
							"name": "y",
							"type": "uint256"
						}
					],
					"stateMutability": "pure",
					"type": "function"
				},
				{
					"inputs": [],
					"name": "returnMany",
					"outputs": [
						{
							"internalType": "uint256",
							"name": "",
							"type": "uint256"
						},
						{
							"internalType": "bool",
							"name": "",
							"type": "bool"
						},
						{
							"internalType": "uint256",
							"name": "",
							"type": "uint256"
						}
					],
					"stateMutability": "pure",
					"type": "function"
				}
			],
			"devdoc": {
				"kind": "dev",
				"methods": {},
				"version": 1
			},
			"evm": {
				"assembly": "    /* \"Function.sol\":61:1244  contract Function{... */\n  mstore(0x40, 0x80)\n  callvalue\n  dup1\n  iszero\n  tag_1\n  jumpi\n  0x00\n  dup1\n  revert\ntag_1:\n  pop\n  dataSize(sub_0)\n  dup1\n  dataOffset(sub_0)\n  0x00\n  codecopy\n  0x00\n  return\nstop\n\nsub_0: assembly {\n        /* \"Function.sol\":61:1244  contract Function{... */\n      mstore(0x40, 0x80)\n      callvalue\n      dup1\n      iszero\n      tag_1\n      jumpi\n      0x00\n      dup1\n      revert\n    tag_1:\n      pop\n      jumpi(tag_2, lt(calldatasize, 0x04))\n      shr(0xe0, calldataload(0x00))\n      dup1\n      0x86887544\n      gt\n      tag_10\n      jumpi\n      dup1\n      0x86887544\n      eq\n      tag_6\n      jumpi\n      dup1\n      0xadb4d990\n      eq\n      tag_7\n      jumpi\n      dup1\n      0xd0110e78\n      eq\n      tag_8\n      jumpi\n      dup1\n      0xf4bb6e6b\n      eq\n      tag_9\n      jumpi\n      jump(tag_2)\n    tag_10:\n      dup1\n      0x1990532b\n      eq\n      tag_3\n      jumpi\n      dup1\n      0x45f907a8\n      eq\n      tag_4\n      jumpi\n      dup1\n      0x71e5ee5f\n      eq\n      tag_5\n      jumpi\n    tag_2:\n      0x00\n      dup1\n      revert\n        /* \"Function.sol\":1152:1241  function arrayOutput() public  view returns (uint[] memory){... */\n    tag_3:\n      tag_11\n      tag_12\n      jump\t// in\n    tag_11:\n      mload(0x40)\n      tag_13\n      swap2\n      swap1\n      tag_14\n      jump\t// in\n    tag_13:\n      mload(0x40)\n      dup1\n      swap2\n      sub\n      swap1\n      return\n        /* \"Function.sol\":268:365  function named() public pure returns (uint x, bool b, uint y){... */\n    tag_4:\n      tag_15\n      tag_16\n      jump\t// in\n    tag_15:\n      mload(0x40)\n      tag_17\n      swap4\n      swap3\n      swap2\n      swap1\n      tag_18\n      jump\t// in\n    tag_17:\n      mload(0x40)\n      dup1\n      swap2\n      sub\n      swap1\n      return\n        /* \"Function.sol\":1126:1143  uint[] public arr */\n    tag_5:\n      tag_19\n      0x04\n      dup1\n      calldatasize\n      sub\n      dup2\n      add\n      swap1\n      tag_20\n      swap2\n      swap1\n      tag_21\n      jump\t// in\n    tag_20:\n      tag_22\n      jump\t// in\n    tag_19:\n      mload(0x40)\n      tag_23\n      swap2\n      swap1\n      tag_24\n      jump\t// in\n    tag_23:\n      mload(0x40)\n      dup1\n      swap2\n      sub\n      swap1\n      return\n        /* \"Function.sol\":130:225  function returnMany() public pure returns (uint, bool, uint){... */\n    tag_6:\n      tag_25\n      tag_26\n      jump\t// in\n    tag_25:\n      mload(0x40)\n      tag_27\n      swap4\n      swap3\n      swap2\n      swap1\n      tag_18\n      jump\t// in\n    tag_27:\n      mload(0x40)\n      dup1\n      swap2\n      sub\n      swap1\n      return\n        /* \"Function.sol\":475:592  function assigned() public pure returns (uint x, bool b, uint y){... */\n    tag_7:\n      tag_28\n      tag_29\n      jump\t// in\n    tag_28:\n      mload(0x40)\n      tag_30\n      swap4\n      swap3\n      swap2\n      swap1\n      tag_18\n      jump\t// in\n    tag_30:\n      mload(0x40)\n      dup1\n      swap2\n      sub\n      swap1\n      return\n        /* \"Function.sol\":694:934  function destructingAssignment() public  pure returns (uint, bool, uint, uint, uint){... */\n    tag_8:\n      tag_31\n      tag_32\n      jump\t// in\n    tag_31:\n      mload(0x40)\n      tag_33\n      swap6\n      swap5\n      swap4\n      swap3\n      swap2\n      swap1\n      tag_34\n      jump\t// in\n    tag_33:\n      mload(0x40)\n      dup1\n      swap2\n      sub\n      swap1\n      return\n        /* \"Function.sol\":1028:1078  function arrayInput(uint [] memory _arr) public {} */\n    tag_9:\n      tag_35\n      0x04\n      dup1\n      calldatasize\n      sub\n      dup2\n      add\n      swap1\n      tag_36\n      swap2\n      swap1\n      tag_37\n      jump\t// in\n    tag_36:\n      tag_38\n      jump\t// in\n    tag_35:\n      stop\n        /* \"Function.sol\":1152:1241  function arrayOutput() public  view returns (uint[] memory){... */\n    tag_12:\n        /* \"Function.sol\":1197:1210  uint[] memory */\n      0x60\n        /* \"Function.sol\":1230:1233  arr */\n      0x00\n        /* \"Function.sol\":1222:1233  return  arr */\n      dup1\n      sload\n      dup1\n      0x20\n      mul\n      0x20\n      add\n      mload(0x40)\n      swap1\n      dup2\n      add\n      0x40\n      mstore\n      dup1\n      swap3\n      swap2\n      swap1\n      dup2\n      dup2\n      mstore\n      0x20\n      add\n      dup3\n      dup1\n      sload\n      dup1\n      iszero\n      tag_40\n      jumpi\n      0x20\n      mul\n      dup3\n      add\n      swap2\n      swap1\n      0x00\n      mstore\n      keccak256(0x00, 0x20)\n      swap1\n    tag_41:\n      dup2\n      sload\n      dup2\n      mstore\n      0x20\n      add\n      swap1\n      0x01\n      add\n      swap1\n      dup1\n      dup4\n      gt\n      tag_41\n      jumpi\n    tag_40:\n      pop\n      pop\n      pop\n      pop\n      pop\n      swap1\n      pop\n        /* \"Function.sol\":1152:1241  function arrayOutput() public  view returns (uint[] memory){... */\n      swap1\n      jump\t// out\n        /* \"Function.sol\":268:365  function named() public pure returns (uint x, bool b, uint y){... */\n    tag_16:\n        /* \"Function.sol\":306:312  uint x */\n      0x00\n        /* \"Function.sol\":314:320  bool b */\n      dup1\n        /* \"Function.sol\":322:328  uint y */\n      0x00\n        /* \"Function.sol\":348:349  1 */\n      0x01\n        /* \"Function.sol\":350:354  true */\n      dup1\n        /* \"Function.sol\":355:356  3 */\n      0x03\n        /* \"Function.sol\":340:357  return (1,true,3) */\n      swap3\n      pop\n      swap3\n      pop\n      swap3\n      pop\n        /* \"Function.sol\":268:365  function named() public pure returns (uint x, bool b, uint y){... */\n      swap1\n      swap2\n      swap3\n      jump\t// out\n        /* \"Function.sol\":1126:1143  uint[] public arr */\n    tag_22:\n      0x00\n      dup2\n      dup2\n      sload\n      dup2\n      lt\n      tag_43\n      jumpi\n      0x00\n      dup1\n      revert\n    tag_43:\n      swap1\n      0x00\n      mstore\n      keccak256(0x00, 0x20)\n      add\n      0x00\n      swap2\n      pop\n      swap1\n      pop\n      sload\n      dup2\n      jump\t// out\n        /* \"Function.sol\":130:225  function returnMany() public pure returns (uint, bool, uint){... */\n    tag_26:\n        /* \"Function.sol\":173:177  uint */\n      0x00\n        /* \"Function.sol\":179:183  bool */\n      dup1\n        /* \"Function.sol\":185:189  uint */\n      0x00\n        /* \"Function.sol\":205:206  1 */\n      0x01\n        /* \"Function.sol\":207:212  false */\n      0x00\n        /* \"Function.sol\":213:214  3 */\n      0x03\n        /* \"Function.sol\":197:215  return (1,false,3) */\n      swap3\n      pop\n      swap3\n      pop\n      swap3\n      pop\n        /* \"Function.sol\":130:225  function returnMany() public pure returns (uint, bool, uint){... */\n      swap1\n      swap2\n      swap3\n      jump\t// out\n        /* \"Function.sol\":475:592  function assigned() public pure returns (uint x, bool b, uint y){... */\n    tag_29:\n        /* \"Function.sol\":516:522  uint x */\n      0x00\n        /* \"Function.sol\":524:530  bool b */\n      dup1\n        /* \"Function.sol\":532:538  uint y */\n      0x00\n        /* \"Function.sol\":552:553  2 */\n      0x02\n        /* \"Function.sol\":550:553  x=2 */\n      swap3\n      pop\n        /* \"Function.sol\":566:570  true */\n      0x01\n        /* \"Function.sol\":564:570  b=true */\n      swap2\n      pop\n        /* \"Function.sol\":583:584  3 */\n      0x03\n        /* \"Function.sol\":581:584  y=3 */\n      swap1\n      pop\n        /* \"Function.sol\":475:592  function assigned() public pure returns (uint x, bool b, uint y){... */\n      swap1\n      swap2\n      swap3\n      jump\t// out\n        /* \"Function.sol\":694:934  function destructingAssignment() public  pure returns (uint, bool, uint, uint, uint){... */\n    tag_32:\n        /* \"Function.sol\":749:753  uint */\n      0x00\n        /* \"Function.sol\":755:759  bool */\n      dup1\n        /* \"Function.sol\":761:765  uint */\n      0x00\n        /* \"Function.sol\":767:771  uint */\n      dup1\n        /* \"Function.sol\":773:777  uint */\n      0x00\n        /* \"Function.sol\":790:796  uint i */\n      dup1\n        /* \"Function.sol\":798:804  bool b */\n      0x00\n        /* \"Function.sol\":806:812  uint j */\n      dup1\n        /* \"Function.sol\":816:828  returnMany() */\n      tag_48\n        /* \"Function.sol\":816:826  returnMany */\n      tag_26\n        /* \"Function.sol\":816:828  returnMany() */\n      jump\t// in\n    tag_48:\n        /* \"Function.sol\":789:828  (uint i, bool b, uint j) = returnMany() */\n      swap3\n      pop\n      swap3\n      pop\n      swap3\n      pop\n        /* \"Function.sol\":875:881  uint x */\n      0x00\n        /* \"Function.sol\":883:889  uint y */\n      dup1\n        /* \"Function.sol\":893:894  4 */\n      0x04\n        /* \"Function.sol\":895:896  5 */\n      0x05\n        /* \"Function.sol\":874:897  (uint x, uint y)= (4,5) */\n      swap2\n      pop\n      swap2\n      pop\n        /* \"Function.sol\":916:917  i */\n      dup5\n        /* \"Function.sol\":918:919  b */\n      dup5\n        /* \"Function.sol\":920:921  j */\n      dup5\n        /* \"Function.sol\":922:923  x */\n      dup5\n        /* \"Function.sol\":924:925  y */\n      dup5\n        /* \"Function.sol\":908:926  return (i,b,j,x,y) */\n      swap10\n      pop\n      swap10\n      pop\n      swap10\n      pop\n      swap10\n      pop\n      swap10\n      pop\n      pop\n      pop\n      pop\n      pop\n      pop\n        /* \"Function.sol\":694:934  function destructingAssignment() public  pure returns (uint, bool, uint, uint, uint){... */\n      swap1\n      swap2\n      swap3\n      swap4\n      swap5\n      jump\t// out\n        /* \"Function.sol\":1028:1078  function arrayInput(uint [] memory _arr) public {} */\n    tag_38:\n      pop\n      jump\t// out\n        /* \"#utility.yul\":7:121   */\n    tag_50:\n        /* \"#utility.yul\":74:80   */\n      0x00\n        /* \"#utility.yul\":108:113   */\n      dup2\n        /* \"#utility.yul\":102:114   */\n      mload\n        /* \"#utility.yul\":92:114   */\n      swap1\n      pop\n        /* \"#utility.yul\":7:121   */\n      swap2\n      swap1\n      pop\n      jump\t// out\n        /* \"#utility.yul\":127:311   */\n    tag_51:\n        /* \"#utility.yul\":226:237   */\n      0x00\n        /* \"#utility.yul\":260:266   */\n      dup3\n        /* \"#utility.yul\":255:258   */\n      dup3\n        /* \"#utility.yul\":248:267   */\n      mstore\n        /* \"#utility.yul\":300:304   */\n      0x20\n        /* \"#utility.yul\":295:298   */\n      dup3\n        /* \"#utility.yul\":291:305   */\n      add\n        /* \"#utility.yul\":276:305   */\n      swap1\n      pop\n        /* \"#utility.yul\":127:311   */\n      swap3\n      swap2\n      pop\n      pop\n      jump\t// out\n        /* \"#utility.yul\":317:449   */\n    tag_52:\n        /* \"#utility.yul\":384:388   */\n      0x00\n        /* \"#utility.yul\":407:410   */\n      dup2\n        /* \"#utility.yul\":399:410   */\n      swap1\n      pop\n        /* \"#utility.yul\":437:441   */\n      0x20\n        /* \"#utility.yul\":432:435   */\n      dup3\n        /* \"#utility.yul\":428:442   */\n      add\n        /* \"#utility.yul\":420:442   */\n      swap1\n      pop\n        /* \"#utility.yul\":317:449   */\n      swap2\n      swap1\n      pop\n      jump\t// out\n        /* \"#utility.yul\":455:532   */\n    tag_53:\n        /* \"#utility.yul\":492:499   */\n      0x00\n        /* \"#utility.yul\":521:526   */\n      dup2\n        /* \"#utility.yul\":510:526   */\n      swap1\n      pop\n        /* \"#utility.yul\":455:532   */\n      swap2\n      swap1\n      pop\n      jump\t// out\n        /* \"#utility.yul\":538:646   */\n    tag_54:\n        /* \"#utility.yul\":615:639   */\n      tag_81\n        /* \"#utility.yul\":633:638   */\n      dup2\n        /* \"#utility.yul\":615:639   */\n      tag_53\n      jump\t// in\n    tag_81:\n        /* \"#utility.yul\":610:613   */\n      dup3\n        /* \"#utility.yul\":603:640   */\n      mstore\n        /* \"#utility.yul\":538:646   */\n      pop\n      pop\n      jump\t// out\n        /* \"#utility.yul\":652:831   */\n    tag_55:\n        /* \"#utility.yul\":721:731   */\n      0x00\n        /* \"#utility.yul\":742:788   */\n      tag_83\n        /* \"#utility.yul\":784:787   */\n      dup4\n        /* \"#utility.yul\":776:782   */\n      dup4\n        /* \"#utility.yul\":742:788   */\n      tag_54\n      jump\t// in\n    tag_83:\n        /* \"#utility.yul\":820:824   */\n      0x20\n        /* \"#utility.yul\":815:818   */\n      dup4\n        /* \"#utility.yul\":811:825   */\n      add\n        /* \"#utility.yul\":797:825   */\n      swap1\n      pop\n        /* \"#utility.yul\":652:831   */\n      swap3\n      swap2\n      pop\n      pop\n      jump\t// out\n        /* \"#utility.yul\":837:950   */\n    tag_56:\n        /* \"#utility.yul\":907:911   */\n      0x00\n        /* \"#utility.yul\":939:943   */\n      0x20\n        /* \"#utility.yul\":934:937   */\n      dup3\n        /* \"#utility.yul\":930:944   */\n      add\n        /* \"#utility.yul\":922:944   */\n      swap1\n      pop\n        /* \"#utility.yul\":837:950   */\n      swap2\n      swap1\n      pop\n      jump\t// out\n        /* \"#utility.yul\":986:1718   */\n    tag_57:\n        /* \"#utility.yul\":1105:1108   */\n      0x00\n        /* \"#utility.yul\":1134:1188   */\n      tag_86\n        /* \"#utility.yul\":1182:1187   */\n      dup3\n        /* \"#utility.yul\":1134:1188   */\n      tag_50\n      jump\t// in\n    tag_86:\n        /* \"#utility.yul\":1204:1290   */\n      tag_87\n        /* \"#utility.yul\":1283:1289   */\n      dup2\n        /* \"#utility.yul\":1278:1281   */\n      dup6\n        /* \"#utility.yul\":1204:1290   */\n      tag_51\n      jump\t// in\n    tag_87:\n        /* \"#utility.yul\":1197:1290   */\n      swap4\n      pop\n        /* \"#utility.yul\":1314:1370   */\n      tag_88\n        /* \"#utility.yul\":1364:1369   */\n      dup4\n        /* \"#utility.yul\":1314:1370   */\n      tag_52\n      jump\t// in\n    tag_88:\n        /* \"#utility.yul\":1393:1400   */\n      dup1\n        /* \"#utility.yul\":1424:1425   */\n      0x00\n        /* \"#utility.yul\":1409:1693   */\n    tag_89:\n        /* \"#utility.yul\":1434:1440   */\n      dup4\n        /* \"#utility.yul\":1431:1432   */\n      dup2\n        /* \"#utility.yul\":1428:1441   */\n      lt\n        /* \"#utility.yul\":1409:1693   */\n      iszero\n      tag_91\n      jumpi\n        /* \"#utility.yul\":1510:1516   */\n      dup2\n        /* \"#utility.yul\":1504:1517   */\n      mload\n        /* \"#utility.yul\":1537:1600   */\n      tag_92\n        /* \"#utility.yul\":1596:1599   */\n      dup9\n        /* \"#utility.yul\":1581:1594   */\n      dup3\n        /* \"#utility.yul\":1537:1600   */\n      tag_55\n      jump\t// in\n    tag_92:\n        /* \"#utility.yul\":1530:1600   */\n      swap8\n      pop\n        /* \"#utility.yul\":1623:1683   */\n      tag_93\n        /* \"#utility.yul\":1676:1682   */\n      dup4\n        /* \"#utility.yul\":1623:1683   */\n      tag_56\n      jump\t// in\n    tag_93:\n        /* \"#utility.yul\":1613:1683   */\n      swap3\n      pop\n        /* \"#utility.yul\":1469:1693   */\n      pop\n        /* \"#utility.yul\":1456:1457   */\n      0x01\n        /* \"#utility.yul\":1453:1454   */\n      dup2\n        /* \"#utility.yul\":1449:1458   */\n      add\n        /* \"#utility.yul\":1444:1458   */\n      swap1\n      pop\n        /* \"#utility.yul\":1409:1693   */\n      jump(tag_89)\n    tag_91:\n        /* \"#utility.yul\":1413:1427   */\n      pop\n        /* \"#utility.yul\":1709:1712   */\n      dup6\n        /* \"#utility.yul\":1702:1712   */\n      swap4\n      pop\n        /* \"#utility.yul\":1110:1718   */\n      pop\n      pop\n      pop\n        /* \"#utility.yul\":986:1718   */\n      swap3\n      swap2\n      pop\n      pop\n      jump\t// out\n        /* \"#utility.yul\":1724:2097   */\n    tag_14:\n        /* \"#utility.yul\":1867:1871   */\n      0x00\n        /* \"#utility.yul\":1905:1907   */\n      0x20\n        /* \"#utility.yul\":1894:1903   */\n      dup3\n        /* \"#utility.yul\":1890:1908   */\n      add\n        /* \"#utility.yul\":1882:1908   */\n      swap1\n      pop\n        /* \"#utility.yul\":1954:1963   */\n      dup2\n        /* \"#utility.yul\":1948:1952   */\n      dup2\n        /* \"#utility.yul\":1944:1964   */\n      sub\n        /* \"#utility.yul\":1940:1941   */\n      0x00\n        /* \"#utility.yul\":1929:1938   */\n      dup4\n        /* \"#utility.yul\":1925:1942   */\n      add\n        /* \"#utility.yul\":1918:1965   */\n      mstore\n        /* \"#utility.yul\":1982:2090   */\n      tag_95\n        /* \"#utility.yul\":2085:2089   */\n      dup2\n        /* \"#utility.yul\":2076:2082   */\n      dup5\n        /* \"#utility.yul\":1982:2090   */\n      tag_57\n      jump\t// in\n    tag_95:\n        /* \"#utility.yul\":1974:2090   */\n      swap1\n      pop\n        /* \"#utility.yul\":1724:2097   */\n      swap3\n      swap2\n      pop\n      pop\n      jump\t// out\n        /* \"#utility.yul\":2103:2221   */\n    tag_58:\n        /* \"#utility.yul\":2190:2214   */\n      tag_97\n        /* \"#utility.yul\":2208:2213   */\n      dup2\n        /* \"#utility.yul\":2190:2214   */\n      tag_53\n      jump\t// in\n    tag_97:\n        /* \"#utility.yul\":2185:2188   */\n      dup3\n        /* \"#utility.yul\":2178:2215   */\n      mstore\n        /* \"#utility.yul\":2103:2221   */\n      pop\n      pop\n      jump\t// out\n        /* \"#utility.yul\":2227:2317   */\n    tag_59:\n        /* \"#utility.yul\":2261:2268   */\n      0x00\n        /* \"#utility.yul\":2304:2309   */\n      dup2\n        /* \"#utility.yul\":2297:2310   */\n      iszero\n        /* \"#utility.yul\":2290:2311   */\n      iszero\n        /* \"#utility.yul\":2279:2311   */\n      swap1\n      pop\n        /* \"#utility.yul\":2227:2317   */\n      swap2\n      swap1\n      pop\n      jump\t// out\n        /* \"#utility.yul\":2323:2432   */\n    tag_60:\n        /* \"#utility.yul\":2404:2425   */\n      tag_100\n        /* \"#utility.yul\":2419:2424   */\n      dup2\n        /* \"#utility.yul\":2404:2425   */\n      tag_59\n      jump\t// in\n    tag_100:\n        /* \"#utility.yul\":2399:2402   */\n      dup3\n        /* \"#utility.yul\":2392:2426   */\n      mstore\n        /* \"#utility.yul\":2323:2432   */\n      pop\n      pop\n      jump\t// out\n        /* \"#utility.yul\":2438:2868   */\n    tag_18:\n        /* \"#utility.yul\":2581:2585   */\n      0x00\n        /* \"#utility.yul\":2619:2621   */\n      0x60\n        /* \"#utility.yul\":2608:2617   */\n      dup3\n        /* \"#utility.yul\":2604:2622   */\n      add\n        /* \"#utility.yul\":2596:2622   */\n      swap1\n      pop\n        /* \"#utility.yul\":2632:2703   */\n      tag_102\n        /* \"#utility.yul\":2700:2701   */\n      0x00\n        /* \"#utility.yul\":2689:2698   */\n      dup4\n        /* \"#utility.yul\":2685:2702   */\n      add\n        /* \"#utility.yul\":2676:2682   */\n      dup7\n        /* \"#utility.yul\":2632:2703   */\n      tag_58\n      jump\t// in\n    tag_102:\n        /* \"#utility.yul\":2713:2779   */\n      tag_103\n        /* \"#utility.yul\":2775:2777   */\n      0x20\n        /* \"#utility.yul\":2764:2773   */\n      dup4\n        /* \"#utility.yul\":2760:2778   */\n      add\n        /* \"#utility.yul\":2751:2757   */\n      dup6\n        /* \"#utility.yul\":2713:2779   */\n      tag_60\n      jump\t// in\n    tag_103:\n        /* \"#utility.yul\":2789:2861   */\n      tag_104\n        /* \"#utility.yul\":2857:2859   */\n      0x40\n        /* \"#utility.yul\":2846:2855   */\n      dup4\n        /* \"#utility.yul\":2842:2860   */\n      add\n        /* \"#utility.yul\":2833:2839   */\n      dup5\n        /* \"#utility.yul\":2789:2861   */\n      tag_58\n      jump\t// in\n    tag_104:\n        /* \"#utility.yul\":2438:2868   */\n      swap5\n      swap4\n      pop\n      pop\n      pop\n      pop\n      jump\t// out\n        /* \"#utility.yul\":2874:2949   */\n    tag_61:\n        /* \"#utility.yul\":2907:2913   */\n      0x00\n        /* \"#utility.yul\":2940:2942   */\n      0x40\n        /* \"#utility.yul\":2934:2943   */\n      mload\n        /* \"#utility.yul\":2924:2943   */\n      swap1\n      pop\n        /* \"#utility.yul\":2874:2949   */\n      swap1\n      jump\t// out\n        /* \"#utility.yul\":2955:3072   */\n    tag_62:\n        /* \"#utility.yul\":3064:3065   */\n      0x00\n        /* \"#utility.yul\":3061:3062   */\n      dup1\n        /* \"#utility.yul\":3054:3066   */\n      revert\n        /* \"#utility.yul\":3078:3195   */\n    tag_63:\n        /* \"#utility.yul\":3187:3188   */\n      0x00\n        /* \"#utility.yul\":3184:3185   */\n      dup1\n        /* \"#utility.yul\":3177:3189   */\n      revert\n        /* \"#utility.yul\":3201:3323   */\n    tag_64:\n        /* \"#utility.yul\":3274:3298   */\n      tag_109\n        /* \"#utility.yul\":3292:3297   */\n      dup2\n        /* \"#utility.yul\":3274:3298   */\n      tag_53\n      jump\t// in\n    tag_109:\n        /* \"#utility.yul\":3267:3272   */\n      dup2\n        /* \"#utility.yul\":3264:3299   */\n      eq\n        /* \"#utility.yul\":3254:3317   */\n      tag_110\n      jumpi\n        /* \"#utility.yul\":3313:3314   */\n      0x00\n        /* \"#utility.yul\":3310:3311   */\n      dup1\n        /* \"#utility.yul\":3303:3315   */\n      revert\n        /* \"#utility.yul\":3254:3317   */\n    tag_110:\n        /* \"#utility.yul\":3201:3323   */\n      pop\n      jump\t// out\n        /* \"#utility.yul\":3329:3468   */\n    tag_65:\n        /* \"#utility.yul\":3375:3380   */\n      0x00\n        /* \"#utility.yul\":3413:3419   */\n      dup2\n        /* \"#utility.yul\":3400:3420   */\n      calldataload\n        /* \"#utility.yul\":3391:3420   */\n      swap1\n      pop\n        /* \"#utility.yul\":3429:3462   */\n      tag_112\n        /* \"#utility.yul\":3456:3461   */\n      dup2\n        /* \"#utility.yul\":3429:3462   */\n      tag_64\n      jump\t// in\n    tag_112:\n        /* \"#utility.yul\":3329:3468   */\n      swap3\n      swap2\n      pop\n      pop\n      jump\t// out\n        /* \"#utility.yul\":3474:3803   */\n    tag_21:\n        /* \"#utility.yul\":3533:3539   */\n      0x00\n        /* \"#utility.yul\":3582:3584   */\n      0x20\n        /* \"#utility.yul\":3570:3579   */\n      dup3\n        /* \"#utility.yul\":3561:3568   */\n      dup5\n        /* \"#utility.yul\":3557:3580   */\n      sub\n        /* \"#utility.yul\":3553:3585   */\n      slt\n        /* \"#utility.yul\":3550:3669   */\n      iszero\n      tag_114\n      jumpi\n        /* \"#utility.yul\":3588:3667   */\n      tag_115\n      tag_62\n      jump\t// in\n    tag_115:\n        /* \"#utility.yul\":3550:3669   */\n    tag_114:\n        /* \"#utility.yul\":3708:3709   */\n      0x00\n        /* \"#utility.yul\":3733:3786   */\n      tag_116\n        /* \"#utility.yul\":3778:3785   */\n      dup5\n        /* \"#utility.yul\":3769:3775   */\n      dup3\n        /* \"#utility.yul\":3758:3767   */\n      dup6\n        /* \"#utility.yul\":3754:3776   */\n      add\n        /* \"#utility.yul\":3733:3786   */\n      tag_65\n      jump\t// in\n    tag_116:\n        /* \"#utility.yul\":3723:3786   */\n      swap2\n      pop\n        /* \"#utility.yul\":3679:3796   */\n      pop\n        /* \"#utility.yul\":3474:3803   */\n      swap3\n      swap2\n      pop\n      pop\n      jump\t// out\n        /* \"#utility.yul\":3809:4031   */\n    tag_24:\n        /* \"#utility.yul\":3902:3906   */\n      0x00\n        /* \"#utility.yul\":3940:3942   */\n      0x20\n        /* \"#utility.yul\":3929:3938   */\n      dup3\n        /* \"#utility.yul\":3925:3943   */\n      add\n        /* \"#utility.yul\":3917:3943   */\n      swap1\n      pop\n        /* \"#utility.yul\":3953:4024   */\n      tag_118\n        /* \"#utility.yul\":4021:4022   */\n      0x00\n        /* \"#utility.yul\":4010:4019   */\n      dup4\n        /* \"#utility.yul\":4006:4023   */\n      add\n        /* \"#utility.yul\":3997:4003   */\n      dup5\n        /* \"#utility.yul\":3953:4024   */\n      tag_58\n      jump\t// in\n    tag_118:\n        /* \"#utility.yul\":3809:4031   */\n      swap3\n      swap2\n      pop\n      pop\n      jump\t// out\n        /* \"#utility.yul\":4037:4689   */\n    tag_34:\n        /* \"#utility.yul\":4236:4240   */\n      0x00\n        /* \"#utility.yul\":4274:4277   */\n      0xa0\n        /* \"#utility.yul\":4263:4272   */\n      dup3\n        /* \"#utility.yul\":4259:4278   */\n      add\n        /* \"#utility.yul\":4251:4278   */\n      swap1\n      pop\n        /* \"#utility.yul\":4288:4359   */\n      tag_120\n        /* \"#utility.yul\":4356:4357   */\n      0x00\n        /* \"#utility.yul\":4345:4354   */\n      dup4\n        /* \"#utility.yul\":4341:4358   */\n      add\n        /* \"#utility.yul\":4332:4338   */\n      dup9\n        /* \"#utility.yul\":4288:4359   */\n      tag_58\n      jump\t// in\n    tag_120:\n        /* \"#utility.yul\":4369:4435   */\n      tag_121\n        /* \"#utility.yul\":4431:4433   */\n      0x20\n        /* \"#utility.yul\":4420:4429   */\n      dup4\n        /* \"#utility.yul\":4416:4434   */\n      add\n        /* \"#utility.yul\":4407:4413   */\n      dup8\n        /* \"#utility.yul\":4369:4435   */\n      tag_60\n      jump\t// in\n    tag_121:\n        /* \"#utility.yul\":4445:4517   */\n      tag_122\n        /* \"#utility.yul\":4513:4515   */\n      0x40\n        /* \"#utility.yul\":4502:4511   */\n      dup4\n        /* \"#utility.yul\":4498:4516   */\n      add\n        /* \"#utility.yul\":4489:4495   */\n      dup7\n        /* \"#utility.yul\":4445:4517   */\n      tag_58\n      jump\t// in\n    tag_122:\n        /* \"#utility.yul\":4527:4599   */\n      tag_123\n        /* \"#utility.yul\":4595:4597   */\n      0x60\n        /* \"#utility.yul\":4584:4593   */\n      dup4\n        /* \"#utility.yul\":4580:4598   */\n      add\n        /* \"#utility.yul\":4571:4577   */\n      dup6\n        /* \"#utility.yul\":4527:4599   */\n      tag_58\n      jump\t// in\n    tag_123:\n        /* \"#utility.yul\":4609:4682   */\n      tag_124\n        /* \"#utility.yul\":4677:4680   */\n      0x80\n        /* \"#utility.yul\":4666:4675   */\n      dup4\n        /* \"#utility.yul\":4662:4681   */\n      add\n        /* \"#utility.yul\":4653:4659   */\n      dup5\n        /* \"#utility.yul\":4609:4682   */\n      tag_58\n      jump\t// in\n    tag_124:\n        /* \"#utility.yul\":4037:4689   */\n      swap7\n      swap6\n      pop\n      pop\n      pop\n      pop\n      pop\n      pop\n      jump\t// out\n        /* \"#utility.yul\":4695:4812   */\n    tag_66:\n        /* \"#utility.yul\":4804:4805   */\n      0x00\n        /* \"#utility.yul\":4801:4802   */\n      dup1\n        /* \"#utility.yul\":4794:4806   */\n      revert\n        /* \"#utility.yul\":4818:4920   */\n    tag_67:\n        /* \"#utility.yul\":4859:4865   */\n      0x00\n        /* \"#utility.yul\":4910:4912   */\n      0x1f\n        /* \"#utility.yul\":4906:4913   */\n      not\n        /* \"#utility.yul\":4901:4903   */\n      0x1f\n        /* \"#utility.yul\":4894:4899   */\n      dup4\n        /* \"#utility.yul\":4890:4904   */\n      add\n        /* \"#utility.yul\":4886:4914   */\n      and\n        /* \"#utility.yul\":4876:4914   */\n      swap1\n      pop\n        /* \"#utility.yul\":4818:4920   */\n      swap2\n      swap1\n      pop\n      jump\t// out\n        /* \"#utility.yul\":4926:5106   */\n    tag_68:\n        /* \"#utility.yul\":4974:5051   */\n      0x4e487b7100000000000000000000000000000000000000000000000000000000\n        /* \"#utility.yul\":4971:4972   */\n      0x00\n        /* \"#utility.yul\":4964:5052   */\n      mstore\n        /* \"#utility.yul\":5071:5075   */\n      0x41\n        /* \"#utility.yul\":5068:5069   */\n      0x04\n        /* \"#utility.yul\":5061:5076   */\n      mstore\n        /* \"#utility.yul\":5095:5099   */\n      0x24\n        /* \"#utility.yul\":5092:5093   */\n      0x00\n        /* \"#utility.yul\":5085:5100   */\n      revert\n        /* \"#utility.yul\":5112:5393   */\n    tag_69:\n        /* \"#utility.yul\":5195:5222   */\n      tag_129\n        /* \"#utility.yul\":5217:5221   */\n      dup3\n        /* \"#utility.yul\":5195:5222   */\n      tag_67\n      jump\t// in\n    tag_129:\n        /* \"#utility.yul\":5187:5193   */\n      dup2\n        /* \"#utility.yul\":5183:5223   */\n      add\n        /* \"#utility.yul\":5325:5331   */\n      dup2\n        /* \"#utility.yul\":5313:5323   */\n      dup2\n        /* \"#utility.yul\":5310:5332   */\n      lt\n        /* \"#utility.yul\":5289:5307   */\n      0xffffffffffffffff\n        /* \"#utility.yul\":5277:5287   */\n      dup3\n        /* \"#utility.yul\":5274:5308   */\n      gt\n        /* \"#utility.yul\":5271:5333   */\n      or\n        /* \"#utility.yul\":5268:5356   */\n      iszero\n      tag_130\n      jumpi\n        /* \"#utility.yul\":5336:5354   */\n      tag_131\n      tag_68\n      jump\t// in\n    tag_131:\n        /* \"#utility.yul\":5268:5356   */\n    tag_130:\n        /* \"#utility.yul\":5376:5386   */\n      dup1\n        /* \"#utility.yul\":5372:5374   */\n      0x40\n        /* \"#utility.yul\":5365:5387   */\n      mstore\n        /* \"#utility.yul\":5155:5393   */\n      pop\n        /* \"#utility.yul\":5112:5393   */\n      pop\n      pop\n      jump\t// out\n        /* \"#utility.yul\":5399:5528   */\n    tag_70:\n        /* \"#utility.yul\":5433:5439   */\n      0x00\n        /* \"#utility.yul\":5460:5480   */\n      tag_133\n      tag_61\n      jump\t// in\n    tag_133:\n        /* \"#utility.yul\":5450:5480   */\n      swap1\n      pop\n        /* \"#utility.yul\":5489:5522   */\n      tag_134\n        /* \"#utility.yul\":5517:5521   */\n      dup3\n        /* \"#utility.yul\":5509:5515   */\n      dup3\n        /* \"#utility.yul\":5489:5522   */\n      tag_69\n      jump\t// in\n    tag_134:\n        /* \"#utility.yul\":5399:5528   */\n      swap2\n      swap1\n      pop\n      jump\t// out\n        /* \"#utility.yul\":5534:5845   */\n    tag_71:\n        /* \"#utility.yul\":5611:5615   */\n      0x00\n        /* \"#utility.yul\":5701:5719   */\n      0xffffffffffffffff\n        /* \"#utility.yul\":5693:5699   */\n      dup3\n        /* \"#utility.yul\":5690:5720   */\n      gt\n        /* \"#utility.yul\":5687:5743   */\n      iszero\n      tag_136\n      jumpi\n        /* \"#utility.yul\":5723:5741   */\n      tag_137\n      tag_68\n      jump\t// in\n    tag_137:\n        /* \"#utility.yul\":5687:5743   */\n    tag_136:\n        /* \"#utility.yul\":5773:5777   */\n      0x20\n        /* \"#utility.yul\":5765:5771   */\n      dup3\n        /* \"#utility.yul\":5761:5778   */\n      mul\n        /* \"#utility.yul\":5753:5778   */\n      swap1\n      pop\n        /* \"#utility.yul\":5833:5837   */\n      0x20\n        /* \"#utility.yul\":5827:5831   */\n      dup2\n        /* \"#utility.yul\":5823:5838   */\n      add\n        /* \"#utility.yul\":5815:5838   */\n      swap1\n      pop\n        /* \"#utility.yul\":5534:5845   */\n      swap2\n      swap1\n      pop\n      jump\t// out\n        /* \"#utility.yul\":5851:5968   */\n    tag_72:\n        /* \"#utility.yul\":5960:5961   */\n      0x00\n        /* \"#utility.yul\":5957:5958   */\n      dup1\n        /* \"#utility.yul\":5950:5962   */\n      revert\n        /* \"#utility.yul\":5991:6701   */\n    tag_73:\n        /* \"#utility.yul\":6087:6092   */\n      0x00\n        /* \"#utility.yul\":6112:6193   */\n      tag_140\n        /* \"#utility.yul\":6128:6192   */\n      tag_141\n        /* \"#utility.yul\":6185:6191   */\n      dup5\n        /* \"#utility.yul\":6128:6192   */\n      tag_71\n      jump\t// in\n    tag_141:\n        /* \"#utility.yul\":6112:6193   */\n      tag_70\n      jump\t// in\n    tag_140:\n        /* \"#utility.yul\":6103:6193   */\n      swap1\n      pop\n        /* \"#utility.yul\":6213:6218   */\n      dup1\n        /* \"#utility.yul\":6242:6248   */\n      dup4\n        /* \"#utility.yul\":6235:6240   */\n      dup3\n        /* \"#utility.yul\":6228:6249   */\n      mstore\n        /* \"#utility.yul\":6276:6280   */\n      0x20\n        /* \"#utility.yul\":6269:6274   */\n      dup3\n        /* \"#utility.yul\":6265:6281   */\n      add\n        /* \"#utility.yul\":6258:6281   */\n      swap1\n      pop\n        /* \"#utility.yul\":6329:6333   */\n      0x20\n        /* \"#utility.yul\":6321:6327   */\n      dup5\n        /* \"#utility.yul\":6317:6334   */\n      mul\n        /* \"#utility.yul\":6309:6315   */\n      dup4\n        /* \"#utility.yul\":6305:6335   */\n      add\n        /* \"#utility.yul\":6358:6361   */\n      dup6\n        /* \"#utility.yul\":6350:6356   */\n      dup2\n        /* \"#utility.yul\":6347:6362   */\n      gt\n        /* \"#utility.yul\":6344:6466   */\n      iszero\n      tag_142\n      jumpi\n        /* \"#utility.yul\":6377:6456   */\n      tag_143\n      tag_72\n      jump\t// in\n    tag_143:\n        /* \"#utility.yul\":6344:6466   */\n    tag_142:\n        /* \"#utility.yul\":6492:6498   */\n      dup4\n        /* \"#utility.yul\":6475:6695   */\n    tag_144:\n        /* \"#utility.yul\":6509:6515   */\n      dup2\n        /* \"#utility.yul\":6504:6507   */\n      dup2\n        /* \"#utility.yul\":6501:6516   */\n      lt\n        /* \"#utility.yul\":6475:6695   */\n      iszero\n      tag_146\n      jumpi\n        /* \"#utility.yul\":6584:6587   */\n      dup1\n        /* \"#utility.yul\":6613:6650   */\n      tag_147\n        /* \"#utility.yul\":6646:6649   */\n      dup9\n        /* \"#utility.yul\":6634:6644   */\n      dup3\n        /* \"#utility.yul\":6613:6650   */\n      tag_65\n      jump\t// in\n    tag_147:\n        /* \"#utility.yul\":6608:6611   */\n      dup5\n        /* \"#utility.yul\":6601:6651   */\n      mstore\n        /* \"#utility.yul\":6680:6684   */\n      0x20\n        /* \"#utility.yul\":6675:6678   */\n      dup5\n        /* \"#utility.yul\":6671:6685   */\n      add\n        /* \"#utility.yul\":6664:6685   */\n      swap4\n      pop\n        /* \"#utility.yul\":6551:6695   */\n      pop\n        /* \"#utility.yul\":6535:6539   */\n      0x20\n        /* \"#utility.yul\":6530:6533   */\n      dup2\n        /* \"#utility.yul\":6526:6540   */\n      add\n        /* \"#utility.yul\":6519:6540   */\n      swap1\n      pop\n        /* \"#utility.yul\":6475:6695   */\n      jump(tag_144)\n    tag_146:\n        /* \"#utility.yul\":6479:6500   */\n      pop\n        /* \"#utility.yul\":6093:6701   */\n      pop\n      pop\n        /* \"#utility.yul\":5991:6701   */\n      swap4\n      swap3\n      pop\n      pop\n      pop\n      jump\t// out\n        /* \"#utility.yul\":6724:7094   */\n    tag_74:\n        /* \"#utility.yul\":6795:6800   */\n      0x00\n        /* \"#utility.yul\":6844:6847   */\n      dup3\n        /* \"#utility.yul\":6837:6841   */\n      0x1f\n        /* \"#utility.yul\":6829:6835   */\n      dup4\n        /* \"#utility.yul\":6825:6842   */\n      add\n        /* \"#utility.yul\":6821:6848   */\n      slt\n        /* \"#utility.yul\":6811:6933   */\n      tag_149\n      jumpi\n        /* \"#utility.yul\":6852:6931   */\n      tag_150\n      tag_66\n      jump\t// in\n    tag_150:\n        /* \"#utility.yul\":6811:6933   */\n    tag_149:\n        /* \"#utility.yul\":6969:6975   */\n      dup2\n        /* \"#utility.yul\":6956:6976   */\n      calldataload\n        /* \"#utility.yul\":6994:7088   */\n      tag_151\n        /* \"#utility.yul\":7084:7087   */\n      dup5\n        /* \"#utility.yul\":7076:7082   */\n      dup3\n        /* \"#utility.yul\":7069:7073   */\n      0x20\n        /* \"#utility.yul\":7061:7067   */\n      dup7\n        /* \"#utility.yul\":7057:7074   */\n      add\n        /* \"#utility.yul\":6994:7088   */\n      tag_73\n      jump\t// in\n    tag_151:\n        /* \"#utility.yul\":6985:7088   */\n      swap2\n      pop\n        /* \"#utility.yul\":6801:7094   */\n      pop\n        /* \"#utility.yul\":6724:7094   */\n      swap3\n      swap2\n      pop\n      pop\n      jump\t// out\n        /* \"#utility.yul\":7100:7639   */\n    tag_37:\n        /* \"#utility.yul\":7184:7190   */\n      0x00\n        /* \"#utility.yul\":7233:7235   */\n      0x20\n        /* \"#utility.yul\":7221:7230   */\n      dup3\n        /* \"#utility.yul\":7212:7219   */\n      dup5\n        /* \"#utility.yul\":7208:7231   */\n      sub\n        /* \"#utility.yul\":7204:7236   */\n      slt\n        /* \"#utility.yul\":7201:7320   */\n      iszero\n      tag_153\n      jumpi\n        /* \"#utility.yul\":7239:7318   */\n      tag_154\n      tag_62\n      jump\t// in\n    tag_154:\n        /* \"#utility.yul\":7201:7320   */\n    tag_153:\n        /* \"#utility.yul\":7387:7388   */\n      0x00\n        /* \"#utility.yul\":7376:7385   */\n      dup3\n        /* \"#utility.yul\":7372:7389   */\n      add\n        /* \"#utility.yul\":7359:7390   */\n      calldataload\n        /* \"#utility.yul\":7417:7435   */\n      0xffffffffffffffff\n        /* \"#utility.yul\":7409:7415   */\n      dup2\n        /* \"#utility.yul\":7406:7436   */\n      gt\n        /* \"#utility.yul\":7403:7520   */\n      iszero\n      tag_155\n      jumpi\n        /* \"#utility.yul\":7439:7518   */\n      tag_156\n      tag_63\n      jump\t// in\n    tag_156:\n        /* \"#utility.yul\":7403:7520   */\n    tag_155:\n        /* \"#utility.yul\":7544:7622   */\n      tag_157\n        /* \"#utility.yul\":7614:7621   */\n      dup5\n        /* \"#utility.yul\":7605:7611   */\n      dup3\n        /* \"#utility.yul\":7594:7603   */\n      dup6\n        /* \"#utility.yul\":7590:7612   */\n      add\n        /* \"#utility.yul\":7544:7622   */\n      tag_74\n      jump\t// in\n    tag_157:\n        /* \"#utility.yul\":7534:7622   */\n      swap2\n      pop\n        /* \"#utility.yul\":7330:7632   */\n      pop\n        /* \"#utility.yul\":7100:7639   */\n      swap3\n      swap2\n      pop\n      pop\n      jump\t// out\n\n    auxdata: 0xa264697066735822122033a7f468c1f184642aec64c5773eb6b9a6f5bd20a13c284a3b9a70cea2edf45164736f6c634300080d0033\n}\n",
				"bytecode": {
					"linkReferences": {},
					"object": "608060405234801561001057600080fd5b5061066c806100206000396000f3fe608060405234801561001057600080fd5b506004361061007d5760003560e01c8063868875441161005b57806386887544146100f0578063adb4d99014610110578063d0110e7814610130578063f4bb6e6b146101525761007d565b80631990532b1461008257806345f907a8146100a057806371e5ee5f146100c0575b600080fd5b61008a61016e565b6040516100979190610336565b60405180910390f35b6100a86101c6565b6040516100b793929190610382565b60405180910390f35b6100da60048036038101906100d591906103f9565b6101db565b6040516100e79190610426565b60405180910390f35b6100f86101ff565b60405161010793929190610382565b60405180910390f35b610118610215565b60405161012793929190610382565b60405180910390f35b61013861022b565b604051610149959493929190610441565b60405180910390f35b61016c600480360381019061016791906105ed565b61026b565b005b606060008054806020026020016040519081016040528092919081815260200182805480156101bc57602002820191906000526020600020905b8154815260200190600101908083116101a8575b5050505050905090565b60008060006001806003925092509250909192565b600081815481106101eb57600080fd5b906000526020600020016000915090505481565b6000806000600160006003925092509250909192565b6000806000600292506001915060039050909192565b60008060008060008060008061023f6101ff565b925092509250600080600460059150915084848484849950995099509950995050505050509091929394565b50565b600081519050919050565b600082825260208201905092915050565b6000819050602082019050919050565b6000819050919050565b6102ad8161029a565b82525050565b60006102bf83836102a4565b60208301905092915050565b6000602082019050919050565b60006102e38261026e565b6102ed8185610279565b93506102f88361028a565b8060005b8381101561032957815161031088826102b3565b975061031b836102cb565b9250506001810190506102fc565b5085935050505092915050565b6000602082019050818103600083015261035081846102d8565b905092915050565b6103618161029a565b82525050565b60008115159050919050565b61037c81610367565b82525050565b60006060820190506103976000830186610358565b6103a46020830185610373565b6103b16040830184610358565b949350505050565b6000604051905090565b600080fd5b600080fd5b6103d68161029a565b81146103e157600080fd5b50565b6000813590506103f3816103cd565b92915050565b60006020828403121561040f5761040e6103c3565b5b600061041d848285016103e4565b91505092915050565b600060208201905061043b6000830184610358565b92915050565b600060a0820190506104566000830188610358565b6104636020830187610373565b6104706040830186610358565b61047d6060830185610358565b61048a6080830184610358565b9695505050505050565b600080fd5b6000601f19601f8301169050919050565b7f4e487b7100000000000000000000000000000000000000000000000000000000600052604160045260246000fd5b6104e282610499565b810181811067ffffffffffffffff82111715610501576105006104aa565b5b80604052505050565b60006105146103b9565b905061052082826104d9565b919050565b600067ffffffffffffffff8211156105405761053f6104aa565b5b602082029050602081019050919050565b600080fd5b600061056961056484610525565b61050a565b9050808382526020820190506020840283018581111561058c5761058b610551565b5b835b818110156105b557806105a188826103e4565b84526020840193505060208101905061058e565b5050509392505050565b600082601f8301126105d4576105d3610494565b5b81356105e4848260208601610556565b91505092915050565b600060208284031215610603576106026103c3565b5b600082013567ffffffffffffffff811115610621576106206103c8565b5b61062d848285016105bf565b9150509291505056fea264697066735822122033a7f468c1f184642aec64c5773eb6b9a6f5bd20a13c284a3b9a70cea2edf45164736f6c634300080d0033",
					"opcodes": "PUSH1 0x80 PUSH1 0x40 MSTORE CALLVALUE DUP1 ISZERO PUSH2 0x10 JUMPI PUSH1 0x0 DUP1 REVERT JUMPDEST POP PUSH2 0x66C DUP1 PUSH2 0x20 PUSH1 0x0 CODECOPY PUSH1 0x0 RETURN INVALID PUSH1 0x80 PUSH1 0x40 MSTORE CALLVALUE DUP1 ISZERO PUSH2 0x10 JUMPI PUSH1 0x0 DUP1 REVERT JUMPDEST POP PUSH1 0x4 CALLDATASIZE LT PUSH2 0x7D JUMPI PUSH1 0x0 CALLDATALOAD PUSH1 0xE0 SHR DUP1 PUSH4 0x86887544 GT PUSH2 0x5B JUMPI DUP1 PUSH4 0x86887544 EQ PUSH2 0xF0 JUMPI DUP1 PUSH4 0xADB4D990 EQ PUSH2 0x110 JUMPI DUP1 PUSH4 0xD0110E78 EQ PUSH2 0x130 JUMPI DUP1 PUSH4 0xF4BB6E6B EQ PUSH2 0x152 JUMPI PUSH2 0x7D JUMP JUMPDEST DUP1 PUSH4 0x1990532B EQ PUSH2 0x82 JUMPI DUP1 PUSH4 0x45F907A8 EQ PUSH2 0xA0 JUMPI DUP1 PUSH4 0x71E5EE5F EQ PUSH2 0xC0 JUMPI JUMPDEST PUSH1 0x0 DUP1 REVERT JUMPDEST PUSH2 0x8A PUSH2 0x16E JUMP JUMPDEST PUSH1 0x40 MLOAD PUSH2 0x97 SWAP2 SWAP1 PUSH2 0x336 JUMP JUMPDEST PUSH1 0x40 MLOAD DUP1 SWAP2 SUB SWAP1 RETURN JUMPDEST PUSH2 0xA8 PUSH2 0x1C6 JUMP JUMPDEST PUSH1 0x40 MLOAD PUSH2 0xB7 SWAP4 SWAP3 SWAP2 SWAP1 PUSH2 0x382 JUMP JUMPDEST PUSH1 0x40 MLOAD DUP1 SWAP2 SUB SWAP1 RETURN JUMPDEST PUSH2 0xDA PUSH1 0x4 DUP1 CALLDATASIZE SUB DUP2 ADD SWAP1 PUSH2 0xD5 SWAP2 SWAP1 PUSH2 0x3F9 JUMP JUMPDEST PUSH2 0x1DB JUMP JUMPDEST PUSH1 0x40 MLOAD PUSH2 0xE7 SWAP2 SWAP1 PUSH2 0x426 JUMP JUMPDEST PUSH1 0x40 MLOAD DUP1 SWAP2 SUB SWAP1 RETURN JUMPDEST PUSH2 0xF8 PUSH2 0x1FF JUMP JUMPDEST PUSH1 0x40 MLOAD PUSH2 0x107 SWAP4 SWAP3 SWAP2 SWAP1 PUSH2 0x382 JUMP JUMPDEST PUSH1 0x40 MLOAD DUP1 SWAP2 SUB SWAP1 RETURN JUMPDEST PUSH2 0x118 PUSH2 0x215 JUMP JUMPDEST PUSH1 0x40 MLOAD PUSH2 0x127 SWAP4 SWAP3 SWAP2 SWAP1 PUSH2 0x382 JUMP JUMPDEST PUSH1 0x40 MLOAD DUP1 SWAP2 SUB SWAP1 RETURN JUMPDEST PUSH2 0x138 PUSH2 0x22B JUMP JUMPDEST PUSH1 0x40 MLOAD PUSH2 0x149 SWAP6 SWAP5 SWAP4 SWAP3 SWAP2 SWAP1 PUSH2 0x441 JUMP JUMPDEST PUSH1 0x40 MLOAD DUP1 SWAP2 SUB SWAP1 RETURN JUMPDEST PUSH2 0x16C PUSH1 0x4 DUP1 CALLDATASIZE SUB DUP2 ADD SWAP1 PUSH2 0x167 SWAP2 SWAP1 PUSH2 0x5ED JUMP JUMPDEST PUSH2 0x26B JUMP JUMPDEST STOP JUMPDEST PUSH1 0x60 PUSH1 0x0 DUP1 SLOAD DUP1 PUSH1 0x20 MUL PUSH1 0x20 ADD PUSH1 0x40 MLOAD SWAP1 DUP2 ADD PUSH1 0x40 MSTORE DUP1 SWAP3 SWAP2 SWAP1 DUP2 DUP2 MSTORE PUSH1 0x20 ADD DUP3 DUP1 SLOAD DUP1 ISZERO PUSH2 0x1BC JUMPI PUSH1 0x20 MUL DUP3 ADD SWAP2 SWAP1 PUSH1 0x0 MSTORE PUSH1 0x20 PUSH1 0x0 KECCAK256 SWAP1 JUMPDEST DUP2 SLOAD DUP2 MSTORE PUSH1 0x20 ADD SWAP1 PUSH1 0x1 ADD SWAP1 DUP1 DUP4 GT PUSH2 0x1A8 JUMPI JUMPDEST POP POP POP POP POP SWAP1 POP SWAP1 JUMP JUMPDEST PUSH1 0x0 DUP1 PUSH1 0x0 PUSH1 0x1 DUP1 PUSH1 0x3 SWAP3 POP SWAP3 POP SWAP3 POP SWAP1 SWAP2 SWAP3 JUMP JUMPDEST PUSH1 0x0 DUP2 DUP2 SLOAD DUP2 LT PUSH2 0x1EB JUMPI PUSH1 0x0 DUP1 REVERT JUMPDEST SWAP1 PUSH1 0x0 MSTORE PUSH1 0x20 PUSH1 0x0 KECCAK256 ADD PUSH1 0x0 SWAP2 POP SWAP1 POP SLOAD DUP2 JUMP JUMPDEST PUSH1 0x0 DUP1 PUSH1 0x0 PUSH1 0x1 PUSH1 0x0 PUSH1 0x3 SWAP3 POP SWAP3 POP SWAP3 POP SWAP1 SWAP2 SWAP3 JUMP JUMPDEST PUSH1 0x0 DUP1 PUSH1 0x0 PUSH1 0x2 SWAP3 POP PUSH1 0x1 SWAP2 POP PUSH1 0x3 SWAP1 POP SWAP1 SWAP2 SWAP3 JUMP JUMPDEST PUSH1 0x0 DUP1 PUSH1 0x0 DUP1 PUSH1 0x0 DUP1 PUSH1 0x0 DUP1 PUSH2 0x23F PUSH2 0x1FF JUMP JUMPDEST SWAP3 POP SWAP3 POP SWAP3 POP PUSH1 0x0 DUP1 PUSH1 0x4 PUSH1 0x5 SWAP2 POP SWAP2 POP DUP5 DUP5 DUP5 DUP5 DUP5 SWAP10 POP SWAP10 POP SWAP10 POP SWAP10 POP SWAP10 POP POP POP POP POP POP SWAP1 SWAP2 SWAP3 SWAP4 SWAP5 JUMP JUMPDEST POP JUMP JUMPDEST PUSH1 0x0 DUP2 MLOAD SWAP1 POP SWAP2 SWAP1 POP JUMP JUMPDEST PUSH1 0x0 DUP3 DUP3 MSTORE PUSH1 0x20 DUP3 ADD SWAP1 POP SWAP3 SWAP2 POP POP JUMP JUMPDEST PUSH1 0x0 DUP2 SWAP1 POP PUSH1 0x20 DUP3 ADD SWAP1 POP SWAP2 SWAP1 POP JUMP JUMPDEST PUSH1 0x0 DUP2 SWAP1 POP SWAP2 SWAP1 POP JUMP JUMPDEST PUSH2 0x2AD DUP2 PUSH2 0x29A JUMP JUMPDEST DUP3 MSTORE POP POP JUMP JUMPDEST PUSH1 0x0 PUSH2 0x2BF DUP4 DUP4 PUSH2 0x2A4 JUMP JUMPDEST PUSH1 0x20 DUP4 ADD SWAP1 POP SWAP3 SWAP2 POP POP JUMP JUMPDEST PUSH1 0x0 PUSH1 0x20 DUP3 ADD SWAP1 POP SWAP2 SWAP1 POP JUMP JUMPDEST PUSH1 0x0 PUSH2 0x2E3 DUP3 PUSH2 0x26E JUMP JUMPDEST PUSH2 0x2ED DUP2 DUP6 PUSH2 0x279 JUMP JUMPDEST SWAP4 POP PUSH2 0x2F8 DUP4 PUSH2 0x28A JUMP JUMPDEST DUP1 PUSH1 0x0 JUMPDEST DUP4 DUP2 LT ISZERO PUSH2 0x329 JUMPI DUP2 MLOAD PUSH2 0x310 DUP9 DUP3 PUSH2 0x2B3 JUMP JUMPDEST SWAP8 POP PUSH2 0x31B DUP4 PUSH2 0x2CB JUMP JUMPDEST SWAP3 POP POP PUSH1 0x1 DUP2 ADD SWAP1 POP PUSH2 0x2FC JUMP JUMPDEST POP DUP6 SWAP4 POP POP POP POP SWAP3 SWAP2 POP POP JUMP JUMPDEST PUSH1 0x0 PUSH1 0x20 DUP3 ADD SWAP1 POP DUP2 DUP2 SUB PUSH1 0x0 DUP4 ADD MSTORE PUSH2 0x350 DUP2 DUP5 PUSH2 0x2D8 JUMP JUMPDEST SWAP1 POP SWAP3 SWAP2 POP POP JUMP JUMPDEST PUSH2 0x361 DUP2 PUSH2 0x29A JUMP JUMPDEST DUP3 MSTORE POP POP JUMP JUMPDEST PUSH1 0x0 DUP2 ISZERO ISZERO SWAP1 POP SWAP2 SWAP1 POP JUMP JUMPDEST PUSH2 0x37C DUP2 PUSH2 0x367 JUMP JUMPDEST DUP3 MSTORE POP POP JUMP JUMPDEST PUSH1 0x0 PUSH1 0x60 DUP3 ADD SWAP1 POP PUSH2 0x397 PUSH1 0x0 DUP4 ADD DUP7 PUSH2 0x358 JUMP JUMPDEST PUSH2 0x3A4 PUSH1 0x20 DUP4 ADD DUP6 PUSH2 0x373 JUMP JUMPDEST PUSH2 0x3B1 PUSH1 0x40 DUP4 ADD DUP5 PUSH2 0x358 JUMP JUMPDEST SWAP5 SWAP4 POP POP POP POP JUMP JUMPDEST PUSH1 0x0 PUSH1 0x40 MLOAD SWAP1 POP SWAP1 JUMP JUMPDEST PUSH1 0x0 DUP1 REVERT JUMPDEST PUSH1 0x0 DUP1 REVERT JUMPDEST PUSH2 0x3D6 DUP2 PUSH2 0x29A JUMP JUMPDEST DUP2 EQ PUSH2 0x3E1 JUMPI PUSH1 0x0 DUP1 REVERT JUMPDEST POP JUMP JUMPDEST PUSH1 0x0 DUP2 CALLDATALOAD SWAP1 POP PUSH2 0x3F3 DUP2 PUSH2 0x3CD JUMP JUMPDEST SWAP3 SWAP2 POP POP JUMP JUMPDEST PUSH1 0x0 PUSH1 0x20 DUP3 DUP5 SUB SLT ISZERO PUSH2 0x40F JUMPI PUSH2 0x40E PUSH2 0x3C3 JUMP JUMPDEST JUMPDEST PUSH1 0x0 PUSH2 0x41D DUP5 DUP3 DUP6 ADD PUSH2 0x3E4 JUMP JUMPDEST SWAP2 POP POP SWAP3 SWAP2 POP POP JUMP JUMPDEST PUSH1 0x0 PUSH1 0x20 DUP3 ADD SWAP1 POP PUSH2 0x43B PUSH1 0x0 DUP4 ADD DUP5 PUSH2 0x358 JUMP JUMPDEST SWAP3 SWAP2 POP POP JUMP JUMPDEST PUSH1 0x0 PUSH1 0xA0 DUP3 ADD SWAP1 POP PUSH2 0x456 PUSH1 0x0 DUP4 ADD DUP9 PUSH2 0x358 JUMP JUMPDEST PUSH2 0x463 PUSH1 0x20 DUP4 ADD DUP8 PUSH2 0x373 JUMP JUMPDEST PUSH2 0x470 PUSH1 0x40 DUP4 ADD DUP7 PUSH2 0x358 JUMP JUMPDEST PUSH2 0x47D PUSH1 0x60 DUP4 ADD DUP6 PUSH2 0x358 JUMP JUMPDEST PUSH2 0x48A PUSH1 0x80 DUP4 ADD DUP5 PUSH2 0x358 JUMP JUMPDEST SWAP7 SWAP6 POP POP POP POP POP POP JUMP JUMPDEST PUSH1 0x0 DUP1 REVERT JUMPDEST PUSH1 0x0 PUSH1 0x1F NOT PUSH1 0x1F DUP4 ADD AND SWAP1 POP SWAP2 SWAP1 POP JUMP JUMPDEST PUSH32 0x4E487B7100000000000000000000000000000000000000000000000000000000 PUSH1 0x0 MSTORE PUSH1 0x41 PUSH1 0x4 MSTORE PUSH1 0x24 PUSH1 0x0 REVERT JUMPDEST PUSH2 0x4E2 DUP3 PUSH2 0x499 JUMP JUMPDEST DUP2 ADD DUP2 DUP2 LT PUSH8 0xFFFFFFFFFFFFFFFF DUP3 GT OR ISZERO PUSH2 0x501 JUMPI PUSH2 0x500 PUSH2 0x4AA JUMP JUMPDEST JUMPDEST DUP1 PUSH1 0x40 MSTORE POP POP POP JUMP JUMPDEST PUSH1 0x0 PUSH2 0x514 PUSH2 0x3B9 JUMP JUMPDEST SWAP1 POP PUSH2 0x520 DUP3 DUP3 PUSH2 0x4D9 JUMP JUMPDEST SWAP2 SWAP1 POP JUMP JUMPDEST PUSH1 0x0 PUSH8 0xFFFFFFFFFFFFFFFF DUP3 GT ISZERO PUSH2 0x540 JUMPI PUSH2 0x53F PUSH2 0x4AA JUMP JUMPDEST JUMPDEST PUSH1 0x20 DUP3 MUL SWAP1 POP PUSH1 0x20 DUP2 ADD SWAP1 POP SWAP2 SWAP1 POP JUMP JUMPDEST PUSH1 0x0 DUP1 REVERT JUMPDEST PUSH1 0x0 PUSH2 0x569 PUSH2 0x564 DUP5 PUSH2 0x525 JUMP JUMPDEST PUSH2 0x50A JUMP JUMPDEST SWAP1 POP DUP1 DUP4 DUP3 MSTORE PUSH1 0x20 DUP3 ADD SWAP1 POP PUSH1 0x20 DUP5 MUL DUP4 ADD DUP6 DUP2 GT ISZERO PUSH2 0x58C JUMPI PUSH2 0x58B PUSH2 0x551 JUMP JUMPDEST JUMPDEST DUP4 JUMPDEST DUP2 DUP2 LT ISZERO PUSH2 0x5B5 JUMPI DUP1 PUSH2 0x5A1 DUP9 DUP3 PUSH2 0x3E4 JUMP JUMPDEST DUP5 MSTORE PUSH1 0x20 DUP5 ADD SWAP4 POP POP PUSH1 0x20 DUP2 ADD SWAP1 POP PUSH2 0x58E JUMP JUMPDEST POP POP POP SWAP4 SWAP3 POP POP POP JUMP JUMPDEST PUSH1 0x0 DUP3 PUSH1 0x1F DUP4 ADD SLT PUSH2 0x5D4 JUMPI PUSH2 0x5D3 PUSH2 0x494 JUMP JUMPDEST JUMPDEST DUP2 CALLDATALOAD PUSH2 0x5E4 DUP5 DUP3 PUSH1 0x20 DUP7 ADD PUSH2 0x556 JUMP JUMPDEST SWAP2 POP POP SWAP3 SWAP2 POP POP JUMP JUMPDEST PUSH1 0x0 PUSH1 0x20 DUP3 DUP5 SUB SLT ISZERO PUSH2 0x603 JUMPI PUSH2 0x602 PUSH2 0x3C3 JUMP JUMPDEST JUMPDEST PUSH1 0x0 DUP3 ADD CALLDATALOAD PUSH8 0xFFFFFFFFFFFFFFFF DUP2 GT ISZERO PUSH2 0x621 JUMPI PUSH2 0x620 PUSH2 0x3C8 JUMP JUMPDEST JUMPDEST PUSH2 0x62D DUP5 DUP3 DUP6 ADD PUSH2 0x5BF JUMP JUMPDEST SWAP2 POP POP SWAP3 SWAP2 POP POP JUMP INVALID LOG2 PUSH5 0x6970667358 0x22 SLT KECCAK256 CALLER 0xA7 DELEGATECALL PUSH9 0xC1F184642AEC64C577 RETURNDATACOPY 0xB6 0xB9 0xA6 CREATE2 0xBD KECCAK256 LOG1 EXTCODECOPY 0x28 0x4A EXTCODESIZE SWAP11 PUSH17 0xCEA2EDF45164736F6C634300080D003300 "
				},
				"gasEstimates": {
					"creation": {
						"codeDepositCost": "328800",
						"executionCost": "368",
						"totalCost": "329168"
					},
					"external": {
						"arr(uint256)": "infinite",
						"arrayInput(uint256[])": "infinite",
						"arrayOutput()": "infinite",
						"assigned()": "infinite",
						"destructingAssignment()": "infinite",
						"named()": "infinite",
						"returnMany()": "infinite"
					}
				},
				"methodIdentifiers": {
					"arr(uint256)": "71e5ee5f",
					"arrayInput(uint256[])": "f4bb6e6b",
					"arrayOutput()": "1990532b",
					"assigned()": "adb4d990",
					"destructingAssignment()": "d0110e78",
					"named()": "45f907a8",
					"returnMany()": "86887544"
				}
			},
			"storageLayout": {
				"storage": [
					{
						"astId": 101,
						"contract": "Function.sol:Function",
						"label": "arr",
						"offset": 0,
						"slot": "0",
						"type": "t_array(t_uint256)dyn_storage"
					}
				],
				"types": {
					"t_array(t_uint256)dyn_storage": {
						"base": "t_uint256",
						"encoding": "dynamic_array",
						"label": "uint256[]",
						"numberOfBytes": "32"
					},
					"t_uint256": {
						"encoding": "inplace",
						"label": "uint256",
						"numberOfBytes": "32"
					}
				}
			},
			"userdoc": {
				"kind": "user",
				"methods": {},
				"version": 1
			}
		}
	}
}