{
	"Function.sol": {
		"XYZ": {
			"abi": [
				{
					"inputs": [],
					"name": "callFunc",
					"outputs": [
						{
							"internalType": "uint256",
							"name": "",
							"type": "uint256"
						}
					],
					"stateMutability": "pure",
					"type": "function"
				},
				{
					"inputs": [],
					"name": "callFunctionWithKeyValue",
					"outputs": [
						{
							"internalType": "uint256",
							"name": "",
							"type": "uint256"
						}
					],
					"stateMutability": "pure",
					"type": "function"
				},
				{
					"inputs": [
						{
							"internalType": "uint256",
							"name": "x",
							"type": "uint256"
						},
						{
							"internalType": "uint256",
							"name": "y",
							"type": "uint256"
						},
						{
							"internalType": "uint256",
							"name": "z",
							"type": "uint256"
						},
						{
							"internalType": "address",
							"name": "a",
							"type": "address"
						},
						{
							"internalType": "bool",
							"name": "b",
							"type": "bool"
						},
						{
							"internalType": "string",
							"name": "c",
							"type": "string"
						}
					],
					"name": "someFunctionWithManyInputs",
					"outputs": [
						{
							"internalType": "uint256",
							"name": "",
							"type": "uint256"
						}
					],
					"stateMutability": "pure",
					"type": "function"
				}
			],
			"devdoc": {
				"kind": "dev",
				"methods": {},
				"version": 1
			},
			"evm": {
				"assembly": "    /* \"Function.sol\":1292:1778  contract XYZ{... */\n  mstore(0x40, 0x80)\n  callvalue\n  dup1\n  iszero\n  tag_1\n  jumpi\n  0x00\n  dup1\n  revert\ntag_1:\n  pop\n  dataSize(sub_0)\n  dup1\n  dataOffset(sub_0)\n  0x00\n  codecopy\n  0x00\n  return\nstop\n\nsub_0: assembly {\n        /* \"Function.sol\":1292:1778  contract XYZ{... */\n      mstore(0x40, 0x80)\n      callvalue\n      dup1\n      iszero\n      tag_1\n      jumpi\n      0x00\n      dup1\n      revert\n    tag_1:\n      pop\n      jumpi(tag_2, lt(calldatasize, 0x04))\n      shr(0xe0, calldataload(0x00))\n      dup1\n      0x9a7846b9\n      eq\n      tag_3\n      jumpi\n      dup1\n      0xd889d5bb\n      eq\n      tag_4\n      jumpi\n      dup1\n      0xe9d47c4a\n      eq\n      tag_5\n      jumpi\n    tag_2:\n      0x00\n      dup1\n      revert\n        /* \"Function.sol\":1451:1591  function callFunc() external pure returns (uint){... */\n    tag_3:\n      tag_6\n      tag_7\n      jump\t// in\n    tag_6:\n      mload(0x40)\n      tag_8\n      swap2\n      swap1\n      tag_9\n      jump\t// in\n    tag_8:\n      mload(0x40)\n      dup1\n      swap2\n      sub\n      swap1\n      return\n        /* \"Function.sol\":1315:1439  function someFunctionWithManyInputs(uint x, uint y, uint z, address a,  bool b, string memory c)public pure returns (uint){} */\n    tag_4:\n      tag_10\n      0x04\n      dup1\n      calldatasize\n      sub\n      dup2\n      add\n      swap1\n      tag_11\n      swap2\n      swap1\n      tag_12\n      jump\t// in\n    tag_11:\n      tag_13\n      jump\t// in\n    tag_10:\n      mload(0x40)\n      tag_14\n      swap2\n      swap1\n      tag_9\n      jump\t// in\n    tag_14:\n      mload(0x40)\n      dup1\n      swap2\n      sub\n      swap1\n      return\n        /* \"Function.sol\":1603:1771  function callFunctionWithKeyValue()public pure returns(uint) {... */\n    tag_5:\n      tag_15\n      tag_16\n      jump\t// in\n    tag_15:\n      mload(0x40)\n      tag_17\n      swap2\n      swap1\n      tag_9\n      jump\t// in\n    tag_17:\n      mload(0x40)\n      dup1\n      swap2\n      sub\n      swap1\n      return\n        /* \"Function.sol\":1451:1591  function callFunc() external pure returns (uint){... */\n    tag_7:\n        /* \"Function.sol\":1494:1498  uint */\n      0x00\n        /* \"Function.sol\":1521:1579  someFunctionWithManyInputs(1, 2, 3, address(0), true, \"c\") */\n      tag_19\n        /* \"Function.sol\":1548:1549  1 */\n      0x01\n        /* \"Function.sol\":1551:1552  2 */\n      0x02\n        /* \"Function.sol\":1554:1555  3 */\n      0x03\n        /* \"Function.sol\":1565:1566  0 */\n      0x00\n        /* \"Function.sol\":1569:1573  true */\n      0x01\n        /* \"Function.sol\":1521:1579  someFunctionWithManyInputs(1, 2, 3, address(0), true, \"c\") */\n      mload(0x40)\n      dup1\n      0x40\n      add\n      0x40\n      mstore\n      dup1\n      0x01\n      dup2\n      mstore\n      0x20\n      add\n      0x6300000000000000000000000000000000000000000000000000000000000000\n      dup2\n      mstore\n      pop\n        /* \"Function.sol\":1521:1547  someFunctionWithManyInputs */\n      tag_13\n        /* \"Function.sol\":1521:1579  someFunctionWithManyInputs(1, 2, 3, address(0), true, \"c\") */\n      jump\t// in\n    tag_19:\n        /* \"Function.sol\":1514:1579  return someFunctionWithManyInputs(1, 2, 3, address(0), true, \"c\") */\n      swap1\n      pop\n        /* \"Function.sol\":1451:1591  function callFunc() external pure returns (uint){... */\n      swap1\n      jump\t// out\n        /* \"Function.sol\":1315:1439  function someFunctionWithManyInputs(uint x, uint y, uint z, address a,  bool b, string memory c)public pure returns (uint){} */\n    tag_13:\n        /* \"Function.sol\":1432:1436  uint */\n      0x00\n        /* \"Function.sol\":1315:1439  function someFunctionWithManyInputs(uint x, uint y, uint z, address a,  bool b, string memory c)public pure returns (uint){} */\n      swap7\n      swap6\n      pop\n      pop\n      pop\n      pop\n      pop\n      pop\n      jump\t// out\n        /* \"Function.sol\":1603:1771  function callFunctionWithKeyValue()public pure returns(uint) {... */\n    tag_16:\n        /* \"Function.sol\":1658:1662  uint */\n      0x00\n        /* \"Function.sol\":1686:1759  someFunctionWithManyInputs({a:address(0), b:true, c:\"c\", x:1 , y:2, z:3}) */\n      tag_22\n        /* \"Function.sol\":1745:1746  1 */\n      0x01\n        /* \"Function.sol\":1751:1752  2 */\n      0x02\n        /* \"Function.sol\":1756:1757  3 */\n      0x03\n        /* \"Function.sol\":1724:1725  0 */\n      0x00\n        /* \"Function.sol\":1730:1734  true */\n      0x01\n        /* \"Function.sol\":1686:1759  someFunctionWithManyInputs({a:address(0), b:true, c:\"c\", x:1 , y:2, z:3}) */\n      mload(0x40)\n      dup1\n      0x40\n      add\n      0x40\n      mstore\n      dup1\n      0x01\n      dup2\n      mstore\n      0x20\n      add\n      0x6300000000000000000000000000000000000000000000000000000000000000\n      dup2\n      mstore\n      pop\n        /* \"Function.sol\":1686:1712  someFunctionWithManyInputs */\n      tag_13\n        /* \"Function.sol\":1686:1759  someFunctionWithManyInputs({a:address(0), b:true, c:\"c\", x:1 , y:2, z:3}) */\n      jump\t// in\n    tag_22:\n        /* \"Function.sol\":1679:1759  return someFunctionWithManyInputs({a:address(0), b:true, c:\"c\", x:1 , y:2, z:3}) */\n      swap1\n      pop\n        /* \"Function.sol\":1603:1771  function callFunctionWithKeyValue()public pure returns(uint) {... */\n      swap1\n      jump\t// out\n        /* \"#utility.yul\":7:84   */\n    tag_23:\n        /* \"#utility.yul\":44:51   */\n      0x00\n        /* \"#utility.yul\":73:78   */\n      dup2\n        /* \"#utility.yul\":62:78   */\n      swap1\n      pop\n        /* \"#utility.yul\":7:84   */\n      swap2\n      swap1\n      pop\n      jump\t// out\n        /* \"#utility.yul\":90:208   */\n    tag_24:\n        /* \"#utility.yul\":177:201   */\n      tag_50\n        /* \"#utility.yul\":195:200   */\n      dup2\n        /* \"#utility.yul\":177:201   */\n      tag_23\n      jump\t// in\n    tag_50:\n        /* \"#utility.yul\":172:175   */\n      dup3\n        /* \"#utility.yul\":165:202   */\n      mstore\n        /* \"#utility.yul\":90:208   */\n      pop\n      pop\n      jump\t// out\n        /* \"#utility.yul\":214:436   */\n    tag_9:\n        /* \"#utility.yul\":307:311   */\n      0x00\n        /* \"#utility.yul\":345:347   */\n      0x20\n        /* \"#utility.yul\":334:343   */\n      dup3\n        /* \"#utility.yul\":330:348   */\n      add\n        /* \"#utility.yul\":322:348   */\n      swap1\n      pop\n        /* \"#utility.yul\":358:429   */\n      tag_52\n        /* \"#utility.yul\":426:427   */\n      0x00\n        /* \"#utility.yul\":415:424   */\n      dup4\n        /* \"#utility.yul\":411:428   */\n      add\n        /* \"#utility.yul\":402:408   */\n      dup5\n        /* \"#utility.yul\":358:429   */\n      tag_24\n      jump\t// in\n    tag_52:\n        /* \"#utility.yul\":214:436   */\n      swap3\n      swap2\n      pop\n      pop\n      jump\t// out\n        /* \"#utility.yul\":442:517   */\n    tag_25:\n        /* \"#utility.yul\":475:481   */\n      0x00\n        /* \"#utility.yul\":508:510   */\n      0x40\n        /* \"#utility.yul\":502:511   */\n      mload\n        /* \"#utility.yul\":492:511   */\n      swap1\n      pop\n        /* \"#utility.yul\":442:517   */\n      swap1\n      jump\t// out\n        /* \"#utility.yul\":523:640   */\n    tag_26:\n        /* \"#utility.yul\":632:633   */\n      0x00\n        /* \"#utility.yul\":629:630   */\n      dup1\n        /* \"#utility.yul\":622:634   */\n      revert\n        /* \"#utility.yul\":646:763   */\n    tag_27:\n        /* \"#utility.yul\":755:756   */\n      0x00\n        /* \"#utility.yul\":752:753   */\n      dup1\n        /* \"#utility.yul\":745:757   */\n      revert\n        /* \"#utility.yul\":769:891   */\n    tag_28:\n        /* \"#utility.yul\":842:866   */\n      tag_57\n        /* \"#utility.yul\":860:865   */\n      dup2\n        /* \"#utility.yul\":842:866   */\n      tag_23\n      jump\t// in\n    tag_57:\n        /* \"#utility.yul\":835:840   */\n      dup2\n        /* \"#utility.yul\":832:867   */\n      eq\n        /* \"#utility.yul\":822:885   */\n      tag_58\n      jumpi\n        /* \"#utility.yul\":881:882   */\n      0x00\n        /* \"#utility.yul\":878:879   */\n      dup1\n        /* \"#utility.yul\":871:883   */\n      revert\n        /* \"#utility.yul\":822:885   */\n    tag_58:\n        /* \"#utility.yul\":769:891   */\n      pop\n      jump\t// out\n        /* \"#utility.yul\":897:1036   */\n    tag_29:\n        /* \"#utility.yul\":943:948   */\n      0x00\n        /* \"#utility.yul\":981:987   */\n      dup2\n        /* \"#utility.yul\":968:988   */\n      calldataload\n        /* \"#utility.yul\":959:988   */\n      swap1\n      pop\n        /* \"#utility.yul\":997:1030   */\n      tag_60\n        /* \"#utility.yul\":1024:1029   */\n      dup2\n        /* \"#utility.yul\":997:1030   */\n      tag_28\n      jump\t// in\n    tag_60:\n        /* \"#utility.yul\":897:1036   */\n      swap3\n      swap2\n      pop\n      pop\n      jump\t// out\n        /* \"#utility.yul\":1042:1168   */\n    tag_30:\n        /* \"#utility.yul\":1079:1086   */\n      0x00\n        /* \"#utility.yul\":1119:1161   */\n      0xffffffffffffffffffffffffffffffffffffffff\n        /* \"#utility.yul\":1112:1117   */\n      dup3\n        /* \"#utility.yul\":1108:1162   */\n      and\n        /* \"#utility.yul\":1097:1162   */\n      swap1\n      pop\n        /* \"#utility.yul\":1042:1168   */\n      swap2\n      swap1\n      pop\n      jump\t// out\n        /* \"#utility.yul\":1174:1270   */\n    tag_31:\n        /* \"#utility.yul\":1211:1218   */\n      0x00\n        /* \"#utility.yul\":1240:1264   */\n      tag_63\n        /* \"#utility.yul\":1258:1263   */\n      dup3\n        /* \"#utility.yul\":1240:1264   */\n      tag_30\n      jump\t// in\n    tag_63:\n        /* \"#utility.yul\":1229:1264   */\n      swap1\n      pop\n        /* \"#utility.yul\":1174:1270   */\n      swap2\n      swap1\n      pop\n      jump\t// out\n        /* \"#utility.yul\":1276:1398   */\n    tag_32:\n        /* \"#utility.yul\":1349:1373   */\n      tag_65\n        /* \"#utility.yul\":1367:1372   */\n      dup2\n        /* \"#utility.yul\":1349:1373   */\n      tag_31\n      jump\t// in\n    tag_65:\n        /* \"#utility.yul\":1342:1347   */\n      dup2\n        /* \"#utility.yul\":1339:1374   */\n      eq\n        /* \"#utility.yul\":1329:1392   */\n      tag_66\n      jumpi\n        /* \"#utility.yul\":1388:1389   */\n      0x00\n        /* \"#utility.yul\":1385:1386   */\n      dup1\n        /* \"#utility.yul\":1378:1390   */\n      revert\n        /* \"#utility.yul\":1329:1392   */\n    tag_66:\n        /* \"#utility.yul\":1276:1398   */\n      pop\n      jump\t// out\n        /* \"#utility.yul\":1404:1543   */\n    tag_33:\n        /* \"#utility.yul\":1450:1455   */\n      0x00\n        /* \"#utility.yul\":1488:1494   */\n      dup2\n        /* \"#utility.yul\":1475:1495   */\n      calldataload\n        /* \"#utility.yul\":1466:1495   */\n      swap1\n      pop\n        /* \"#utility.yul\":1504:1537   */\n      tag_68\n        /* \"#utility.yul\":1531:1536   */\n      dup2\n        /* \"#utility.yul\":1504:1537   */\n      tag_32\n      jump\t// in\n    tag_68:\n        /* \"#utility.yul\":1404:1543   */\n      swap3\n      swap2\n      pop\n      pop\n      jump\t// out\n        /* \"#utility.yul\":1549:1639   */\n    tag_34:\n        /* \"#utility.yul\":1583:1590   */\n      0x00\n        /* \"#utility.yul\":1626:1631   */\n      dup2\n        /* \"#utility.yul\":1619:1632   */\n      iszero\n        /* \"#utility.yul\":1612:1633   */\n      iszero\n        /* \"#utility.yul\":1601:1633   */\n      swap1\n      pop\n        /* \"#utility.yul\":1549:1639   */\n      swap2\n      swap1\n      pop\n      jump\t// out\n        /* \"#utility.yul\":1645:1761   */\n    tag_35:\n        /* \"#utility.yul\":1715:1736   */\n      tag_71\n        /* \"#utility.yul\":1730:1735   */\n      dup2\n        /* \"#utility.yul\":1715:1736   */\n      tag_34\n      jump\t// in\n    tag_71:\n        /* \"#utility.yul\":1708:1713   */\n      dup2\n        /* \"#utility.yul\":1705:1737   */\n      eq\n        /* \"#utility.yul\":1695:1755   */\n      tag_72\n      jumpi\n        /* \"#utility.yul\":1751:1752   */\n      0x00\n        /* \"#utility.yul\":1748:1749   */\n      dup1\n        /* \"#utility.yul\":1741:1753   */\n      revert\n        /* \"#utility.yul\":1695:1755   */\n    tag_72:\n        /* \"#utility.yul\":1645:1761   */\n      pop\n      jump\t// out\n        /* \"#utility.yul\":1767:1900   */\n    tag_36:\n        /* \"#utility.yul\":1810:1815   */\n      0x00\n        /* \"#utility.yul\":1848:1854   */\n      dup2\n        /* \"#utility.yul\":1835:1855   */\n      calldataload\n        /* \"#utility.yul\":1826:1855   */\n      swap1\n      pop\n        /* \"#utility.yul\":1864:1894   */\n      tag_74\n        /* \"#utility.yul\":1888:1893   */\n      dup2\n        /* \"#utility.yul\":1864:1894   */\n      tag_35\n      jump\t// in\n    tag_74:\n        /* \"#utility.yul\":1767:1900   */\n      swap3\n      swap2\n      pop\n      pop\n      jump\t// out\n        /* \"#utility.yul\":1906:2023   */\n    tag_37:\n        /* \"#utility.yul\":2015:2016   */\n      0x00\n        /* \"#utility.yul\":2012:2013   */\n      dup1\n        /* \"#utility.yul\":2005:2017   */\n      revert\n        /* \"#utility.yul\":2029:2146   */\n    tag_38:\n        /* \"#utility.yul\":2138:2139   */\n      0x00\n        /* \"#utility.yul\":2135:2136   */\n      dup1\n        /* \"#utility.yul\":2128:2140   */\n      revert\n        /* \"#utility.yul\":2152:2254   */\n    tag_39:\n        /* \"#utility.yul\":2193:2199   */\n      0x00\n        /* \"#utility.yul\":2244:2246   */\n      0x1f\n        /* \"#utility.yul\":2240:2247   */\n      not\n        /* \"#utility.yul\":2235:2237   */\n      0x1f\n        /* \"#utility.yul\":2228:2233   */\n      dup4\n        /* \"#utility.yul\":2224:2238   */\n      add\n        /* \"#utility.yul\":2220:2248   */\n      and\n        /* \"#utility.yul\":2210:2248   */\n      swap1\n      pop\n        /* \"#utility.yul\":2152:2254   */\n      swap2\n      swap1\n      pop\n      jump\t// out\n        /* \"#utility.yul\":2260:2440   */\n    tag_40:\n        /* \"#utility.yul\":2308:2385   */\n      0x4e487b7100000000000000000000000000000000000000000000000000000000\n        /* \"#utility.yul\":2305:2306   */\n      0x00\n        /* \"#utility.yul\":2298:2386   */\n      mstore\n        /* \"#utility.yul\":2405:2409   */\n      0x41\n        /* \"#utility.yul\":2402:2403   */\n      0x04\n        /* \"#utility.yul\":2395:2410   */\n      mstore\n        /* \"#utility.yul\":2429:2433   */\n      0x24\n        /* \"#utility.yul\":2426:2427   */\n      0x00\n        /* \"#utility.yul\":2419:2434   */\n      revert\n        /* \"#utility.yul\":2446:2727   */\n    tag_41:\n        /* \"#utility.yul\":2529:2556   */\n      tag_80\n        /* \"#utility.yul\":2551:2555   */\n      dup3\n        /* \"#utility.yul\":2529:2556   */\n      tag_39\n      jump\t// in\n    tag_80:\n        /* \"#utility.yul\":2521:2527   */\n      dup2\n        /* \"#utility.yul\":2517:2557   */\n      add\n        /* \"#utility.yul\":2659:2665   */\n      dup2\n        /* \"#utility.yul\":2647:2657   */\n      dup2\n        /* \"#utility.yul\":2644:2666   */\n      lt\n        /* \"#utility.yul\":2623:2641   */\n      0xffffffffffffffff\n        /* \"#utility.yul\":2611:2621   */\n      dup3\n        /* \"#utility.yul\":2608:2642   */\n      gt\n        /* \"#utility.yul\":2605:2667   */\n      or\n        /* \"#utility.yul\":2602:2690   */\n      iszero\n      tag_81\n      jumpi\n        /* \"#utility.yul\":2670:2688   */\n      tag_82\n      tag_40\n      jump\t// in\n    tag_82:\n        /* \"#utility.yul\":2602:2690   */\n    tag_81:\n        /* \"#utility.yul\":2710:2720   */\n      dup1\n        /* \"#utility.yul\":2706:2708   */\n      0x40\n        /* \"#utility.yul\":2699:2721   */\n      mstore\n        /* \"#utility.yul\":2489:2727   */\n      pop\n        /* \"#utility.yul\":2446:2727   */\n      pop\n      pop\n      jump\t// out\n        /* \"#utility.yul\":2733:2862   */\n    tag_42:\n        /* \"#utility.yul\":2767:2773   */\n      0x00\n        /* \"#utility.yul\":2794:2814   */\n      tag_84\n      tag_25\n      jump\t// in\n    tag_84:\n        /* \"#utility.yul\":2784:2814   */\n      swap1\n      pop\n        /* \"#utility.yul\":2823:2856   */\n      tag_85\n        /* \"#utility.yul\":2851:2855   */\n      dup3\n        /* \"#utility.yul\":2843:2849   */\n      dup3\n        /* \"#utility.yul\":2823:2856   */\n      tag_41\n      jump\t// in\n    tag_85:\n        /* \"#utility.yul\":2733:2862   */\n      swap2\n      swap1\n      pop\n      jump\t// out\n        /* \"#utility.yul\":2868:3176   */\n    tag_43:\n        /* \"#utility.yul\":2930:2934   */\n      0x00\n        /* \"#utility.yul\":3020:3038   */\n      0xffffffffffffffff\n        /* \"#utility.yul\":3012:3018   */\n      dup3\n        /* \"#utility.yul\":3009:3039   */\n      gt\n        /* \"#utility.yul\":3006:3062   */\n      iszero\n      tag_87\n      jumpi\n        /* \"#utility.yul\":3042:3060   */\n      tag_88\n      tag_40\n      jump\t// in\n    tag_88:\n        /* \"#utility.yul\":3006:3062   */\n    tag_87:\n        /* \"#utility.yul\":3080:3109   */\n      tag_89\n        /* \"#utility.yul\":3102:3108   */\n      dup3\n        /* \"#utility.yul\":3080:3109   */\n      tag_39\n      jump\t// in\n    tag_89:\n        /* \"#utility.yul\":3072:3109   */\n      swap1\n      pop\n        /* \"#utility.yul\":3164:3168   */\n      0x20\n        /* \"#utility.yul\":3158:3162   */\n      dup2\n        /* \"#utility.yul\":3154:3169   */\n      add\n        /* \"#utility.yul\":3146:3169   */\n      swap1\n      pop\n        /* \"#utility.yul\":2868:3176   */\n      swap2\n      swap1\n      pop\n      jump\t// out\n        /* \"#utility.yul\":3182:3336   */\n    tag_44:\n        /* \"#utility.yul\":3266:3272   */\n      dup3\n        /* \"#utility.yul\":3261:3264   */\n      dup2\n        /* \"#utility.yul\":3256:3259   */\n      dup4\n        /* \"#utility.yul\":3243:3273   */\n      calldatacopy\n        /* \"#utility.yul\":3328:3329   */\n      0x00\n        /* \"#utility.yul\":3319:3325   */\n      dup4\n        /* \"#utility.yul\":3314:3317   */\n      dup4\n        /* \"#utility.yul\":3310:3326   */\n      add\n        /* \"#utility.yul\":3303:3330   */\n      mstore\n        /* \"#utility.yul\":3182:3336   */\n      pop\n      pop\n      pop\n      jump\t// out\n        /* \"#utility.yul\":3342:3754   */\n    tag_45:\n        /* \"#utility.yul\":3420:3425   */\n      0x00\n        /* \"#utility.yul\":3445:3511   */\n      tag_92\n        /* \"#utility.yul\":3461:3510   */\n      tag_93\n        /* \"#utility.yul\":3503:3509   */\n      dup5\n        /* \"#utility.yul\":3461:3510   */\n      tag_43\n      jump\t// in\n    tag_93:\n        /* \"#utility.yul\":3445:3511   */\n      tag_42\n      jump\t// in\n    tag_92:\n        /* \"#utility.yul\":3436:3511   */\n      swap1\n      pop\n        /* \"#utility.yul\":3534:3540   */\n      dup3\n        /* \"#utility.yul\":3527:3532   */\n      dup2\n        /* \"#utility.yul\":3520:3541   */\n      mstore\n        /* \"#utility.yul\":3572:3576   */\n      0x20\n        /* \"#utility.yul\":3565:3570   */\n      dup2\n        /* \"#utility.yul\":3561:3577   */\n      add\n        /* \"#utility.yul\":3610:3613   */\n      dup5\n        /* \"#utility.yul\":3601:3607   */\n      dup5\n        /* \"#utility.yul\":3596:3599   */\n      dup5\n        /* \"#utility.yul\":3592:3608   */\n      add\n        /* \"#utility.yul\":3589:3614   */\n      gt\n        /* \"#utility.yul\":3586:3698   */\n      iszero\n      tag_94\n      jumpi\n        /* \"#utility.yul\":3617:3696   */\n      tag_95\n      tag_38\n      jump\t// in\n    tag_95:\n        /* \"#utility.yul\":3586:3698   */\n    tag_94:\n        /* \"#utility.yul\":3707:3748   */\n      tag_96\n        /* \"#utility.yul\":3741:3747   */\n      dup5\n        /* \"#utility.yul\":3736:3739   */\n      dup3\n        /* \"#utility.yul\":3731:3734   */\n      dup6\n        /* \"#utility.yul\":3707:3748   */\n      tag_44\n      jump\t// in\n    tag_96:\n        /* \"#utility.yul\":3426:3754   */\n      pop\n        /* \"#utility.yul\":3342:3754   */\n      swap4\n      swap3\n      pop\n      pop\n      pop\n      jump\t// out\n        /* \"#utility.yul\":3774:4114   */\n    tag_46:\n        /* \"#utility.yul\":3830:3835   */\n      0x00\n        /* \"#utility.yul\":3879:3882   */\n      dup3\n        /* \"#utility.yul\":3872:3876   */\n      0x1f\n        /* \"#utility.yul\":3864:3870   */\n      dup4\n        /* \"#utility.yul\":3860:3877   */\n      add\n        /* \"#utility.yul\":3856:3883   */\n      slt\n        /* \"#utility.yul\":3846:3968   */\n      tag_98\n      jumpi\n        /* \"#utility.yul\":3887:3966   */\n      tag_99\n      tag_37\n      jump\t// in\n    tag_99:\n        /* \"#utility.yul\":3846:3968   */\n    tag_98:\n        /* \"#utility.yul\":4004:4010   */\n      dup2\n        /* \"#utility.yul\":3991:4011   */\n      calldataload\n        /* \"#utility.yul\":4029:4108   */\n      tag_100\n        /* \"#utility.yul\":4104:4107   */\n      dup5\n        /* \"#utility.yul\":4096:4102   */\n      dup3\n        /* \"#utility.yul\":4089:4093   */\n      0x20\n        /* \"#utility.yul\":4081:4087   */\n      dup7\n        /* \"#utility.yul\":4077:4094   */\n      add\n        /* \"#utility.yul\":4029:4108   */\n      tag_45\n      jump\t// in\n    tag_100:\n        /* \"#utility.yul\":4020:4108   */\n      swap2\n      pop\n        /* \"#utility.yul\":3836:4114   */\n      pop\n        /* \"#utility.yul\":3774:4114   */\n      swap3\n      swap2\n      pop\n      pop\n      jump\t// out\n        /* \"#utility.yul\":4120:5351   */\n    tag_12:\n        /* \"#utility.yul\":4231:4237   */\n      0x00\n        /* \"#utility.yul\":4239:4245   */\n      dup1\n        /* \"#utility.yul\":4247:4253   */\n      0x00\n        /* \"#utility.yul\":4255:4261   */\n      dup1\n        /* \"#utility.yul\":4263:4269   */\n      0x00\n        /* \"#utility.yul\":4271:4277   */\n      dup1\n        /* \"#utility.yul\":4320:4323   */\n      0xc0\n        /* \"#utility.yul\":4308:4317   */\n      dup8\n        /* \"#utility.yul\":4299:4306   */\n      dup10\n        /* \"#utility.yul\":4295:4318   */\n      sub\n        /* \"#utility.yul\":4291:4324   */\n      slt\n        /* \"#utility.yul\":4288:4408   */\n      iszero\n      tag_102\n      jumpi\n        /* \"#utility.yul\":4327:4406   */\n      tag_103\n      tag_26\n      jump\t// in\n    tag_103:\n        /* \"#utility.yul\":4288:4408   */\n    tag_102:\n        /* \"#utility.yul\":4447:4448   */\n      0x00\n        /* \"#utility.yul\":4472:4525   */\n      tag_104\n        /* \"#utility.yul\":4517:4524   */\n      dup10\n        /* \"#utility.yul\":4508:4514   */\n      dup3\n        /* \"#utility.yul\":4497:4506   */\n      dup11\n        /* \"#utility.yul\":4493:4515   */\n      add\n        /* \"#utility.yul\":4472:4525   */\n      tag_29\n      jump\t// in\n    tag_104:\n        /* \"#utility.yul\":4462:4525   */\n      swap7\n      pop\n        /* \"#utility.yul\":4418:4535   */\n      pop\n        /* \"#utility.yul\":4574:4576   */\n      0x20\n        /* \"#utility.yul\":4600:4653   */\n      tag_105\n        /* \"#utility.yul\":4645:4652   */\n      dup10\n        /* \"#utility.yul\":4636:4642   */\n      dup3\n        /* \"#utility.yul\":4625:4634   */\n      dup11\n        /* \"#utility.yul\":4621:4643   */\n      add\n        /* \"#utility.yul\":4600:4653   */\n      tag_29\n      jump\t// in\n    tag_105:\n        /* \"#utility.yul\":4590:4653   */\n      swap6\n      pop\n        /* \"#utility.yul\":4545:4663   */\n      pop\n        /* \"#utility.yul\":4702:4704   */\n      0x40\n        /* \"#utility.yul\":4728:4781   */\n      tag_106\n        /* \"#utility.yul\":4773:4780   */\n      dup10\n        /* \"#utility.yul\":4764:4770   */\n      dup3\n        /* \"#utility.yul\":4753:4762   */\n      dup11\n        /* \"#utility.yul\":4749:4771   */\n      add\n        /* \"#utility.yul\":4728:4781   */\n      tag_29\n      jump\t// in\n    tag_106:\n        /* \"#utility.yul\":4718:4781   */\n      swap5\n      pop\n        /* \"#utility.yul\":4673:4791   */\n      pop\n        /* \"#utility.yul\":4830:4832   */\n      0x60\n        /* \"#utility.yul\":4856:4909   */\n      tag_107\n        /* \"#utility.yul\":4901:4908   */\n      dup10\n        /* \"#utility.yul\":4892:4898   */\n      dup3\n        /* \"#utility.yul\":4881:4890   */\n      dup11\n        /* \"#utility.yul\":4877:4899   */\n      add\n        /* \"#utility.yul\":4856:4909   */\n      tag_33\n      jump\t// in\n    tag_107:\n        /* \"#utility.yul\":4846:4909   */\n      swap4\n      pop\n        /* \"#utility.yul\":4801:4919   */\n      pop\n        /* \"#utility.yul\":4958:4961   */\n      0x80\n        /* \"#utility.yul\":4985:5035   */\n      tag_108\n        /* \"#utility.yul\":5027:5034   */\n      dup10\n        /* \"#utility.yul\":5018:5024   */\n      dup3\n        /* \"#utility.yul\":5007:5016   */\n      dup11\n        /* \"#utility.yul\":5003:5025   */\n      add\n        /* \"#utility.yul\":4985:5035   */\n      tag_36\n      jump\t// in\n    tag_108:\n        /* \"#utility.yul\":4975:5035   */\n      swap3\n      pop\n        /* \"#utility.yul\":4929:5045   */\n      pop\n        /* \"#utility.yul\":5112:5115   */\n      0xa0\n        /* \"#utility.yul\":5101:5110   */\n      dup8\n        /* \"#utility.yul\":5097:5116   */\n      add\n        /* \"#utility.yul\":5084:5117   */\n      calldataload\n        /* \"#utility.yul\":5144:5162   */\n      0xffffffffffffffff\n        /* \"#utility.yul\":5136:5142   */\n      dup2\n        /* \"#utility.yul\":5133:5163   */\n      gt\n        /* \"#utility.yul\":5130:5247   */\n      iszero\n      tag_109\n      jumpi\n        /* \"#utility.yul\":5166:5245   */\n      tag_110\n      tag_27\n      jump\t// in\n    tag_110:\n        /* \"#utility.yul\":5130:5247   */\n    tag_109:\n        /* \"#utility.yul\":5271:5334   */\n      tag_111\n        /* \"#utility.yul\":5326:5333   */\n      dup10\n        /* \"#utility.yul\":5317:5323   */\n      dup3\n        /* \"#utility.yul\":5306:5315   */\n      dup11\n        /* \"#utility.yul\":5302:5324   */\n      add\n        /* \"#utility.yul\":5271:5334   */\n      tag_46\n      jump\t// in\n    tag_111:\n        /* \"#utility.yul\":5261:5334   */\n      swap2\n      pop\n        /* \"#utility.yul\":5055:5344   */\n      pop\n        /* \"#utility.yul\":4120:5351   */\n      swap3\n      swap6\n      pop\n      swap3\n      swap6\n      pop\n      swap3\n      swap6\n      jump\t// out\n\n    auxdata: 0xa264697066735822122084a6c196f693e5cc8dac6e44c688e6ab126dfdabd7efcb825d21e8ae3880cf6c64736f6c634300080d0033\n}\n",
				"bytecode": {
					"linkReferences": {},
					"object": "608060405234801561001057600080fd5b5061048b806100206000396000f3fe608060405234801561001057600080fd5b50600436106100415760003560e01c80639a7846b914610046578063d889d5bb14610064578063e9d47c4a14610094575b600080fd5b61004e6100b2565b60405161005b9190610175565b60405180910390f35b61007e600480360381019061007991906103ac565b610101565b60405161008b9190610175565b60405180910390f35b61009c61010d565b6040516100a99190610175565b60405180910390f35b60006100fc600160026003600060016040518060400160405280600181526020017f6300000000000000000000000000000000000000000000000000000000000000815250610101565b905090565b60009695505050505050565b6000610157600160026003600060016040518060400160405280600181526020017f6300000000000000000000000000000000000000000000000000000000000000815250610101565b905090565b6000819050919050565b61016f8161015c565b82525050565b600060208201905061018a6000830184610166565b92915050565b6000604051905090565b600080fd5b600080fd5b6101ad8161015c565b81146101b857600080fd5b50565b6000813590506101ca816101a4565b92915050565b600073ffffffffffffffffffffffffffffffffffffffff82169050919050565b60006101fb826101d0565b9050919050565b61020b816101f0565b811461021657600080fd5b50565b60008135905061022881610202565b92915050565b60008115159050919050565b6102438161022e565b811461024e57600080fd5b50565b6000813590506102608161023a565b92915050565b600080fd5b600080fd5b6000601f19601f8301169050919050565b7f4e487b7100000000000000000000000000000000000000000000000000000000600052604160045260246000fd5b6102b982610270565b810181811067ffffffffffffffff821117156102d8576102d7610281565b5b80604052505050565b60006102eb610190565b90506102f782826102b0565b919050565b600067ffffffffffffffff82111561031757610316610281565b5b61032082610270565b9050602081019050919050565b82818337600083830152505050565b600061034f61034a846102fc565b6102e1565b90508281526020810184848401111561036b5761036a61026b565b5b61037684828561032d565b509392505050565b600082601f83011261039357610392610266565b5b81356103a384826020860161033c565b91505092915050565b60008060008060008060c087890312156103c9576103c861019a565b5b60006103d789828a016101bb565b96505060206103e889828a016101bb565b95505060406103f989828a016101bb565b945050606061040a89828a01610219565b935050608061041b89828a01610251565b92505060a087013567ffffffffffffffff81111561043c5761043b61019f565b5b61044889828a0161037e565b915050929550929550929556fea264697066735822122084a6c196f693e5cc8dac6e44c688e6ab126dfdabd7efcb825d21e8ae3880cf6c64736f6c634300080d0033",
					"opcodes": "PUSH1 0x80 PUSH1 0x40 MSTORE CALLVALUE DUP1 ISZERO PUSH2 0x10 JUMPI PUSH1 0x0 DUP1 REVERT JUMPDEST POP PUSH2 0x48B DUP1 PUSH2 0x20 PUSH1 0x0 CODECOPY PUSH1 0x0 RETURN INVALID PUSH1 0x80 PUSH1 0x40 MSTORE CALLVALUE DUP1 ISZERO PUSH2 0x10 JUMPI PUSH1 0x0 DUP1 REVERT JUMPDEST POP PUSH1 0x4 CALLDATASIZE LT PUSH2 0x41 JUMPI PUSH1 0x0 CALLDATALOAD PUSH1 0xE0 SHR DUP1 PUSH4 0x9A7846B9 EQ PUSH2 0x46 JUMPI DUP1 PUSH4 0xD889D5BB EQ PUSH2 0x64 JUMPI DUP1 PUSH4 0xE9D47C4A EQ PUSH2 0x94 JUMPI JUMPDEST PUSH1 0x0 DUP1 REVERT JUMPDEST PUSH2 0x4E PUSH2 0xB2 JUMP JUMPDEST PUSH1 0x40 MLOAD PUSH2 0x5B SWAP2 SWAP1 PUSH2 0x175 JUMP JUMPDEST PUSH1 0x40 MLOAD DUP1 SWAP2 SUB SWAP1 RETURN JUMPDEST PUSH2 0x7E PUSH1 0x4 DUP1 CALLDATASIZE SUB DUP2 ADD SWAP1 PUSH2 0x79 SWAP2 SWAP1 PUSH2 0x3AC JUMP JUMPDEST PUSH2 0x101 JUMP JUMPDEST PUSH1 0x40 MLOAD PUSH2 0x8B SWAP2 SWAP1 PUSH2 0x175 JUMP JUMPDEST PUSH1 0x40 MLOAD DUP1 SWAP2 SUB SWAP1 RETURN JUMPDEST PUSH2 0x9C PUSH2 0x10D JUMP JUMPDEST PUSH1 0x40 MLOAD PUSH2 0xA9 SWAP2 SWAP1 PUSH2 0x175 JUMP JUMPDEST PUSH1 0x40 MLOAD DUP1 SWAP2 SUB SWAP1 RETURN JUMPDEST PUSH1 0x0 PUSH2 0xFC PUSH1 0x1 PUSH1 0x2 PUSH1 0x3 PUSH1 0x0 PUSH1 0x1 PUSH1 0x40 MLOAD DUP1 PUSH1 0x40 ADD PUSH1 0x40 MSTORE DUP1 PUSH1 0x1 DUP2 MSTORE PUSH1 0x20 ADD PUSH32 0x6300000000000000000000000000000000000000000000000000000000000000 DUP2 MSTORE POP PUSH2 0x101 JUMP JUMPDEST SWAP1 POP SWAP1 JUMP JUMPDEST PUSH1 0x0 SWAP7 SWAP6 POP POP POP POP POP POP JUMP JUMPDEST PUSH1 0x0 PUSH2 0x157 PUSH1 0x1 PUSH1 0x2 PUSH1 0x3 PUSH1 0x0 PUSH1 0x1 PUSH1 0x40 MLOAD DUP1 PUSH1 0x40 ADD PUSH1 0x40 MSTORE DUP1 PUSH1 0x1 DUP2 MSTORE PUSH1 0x20 ADD PUSH32 0x6300000000000000000000000000000000000000000000000000000000000000 DUP2 MSTORE POP PUSH2 0x101 JUMP JUMPDEST SWAP1 POP SWAP1 JUMP JUMPDEST PUSH1 0x0 DUP2 SWAP1 POP SWAP2 SWAP1 POP JUMP JUMPDEST PUSH2 0x16F DUP2 PUSH2 0x15C JUMP JUMPDEST DUP3 MSTORE POP POP JUMP JUMPDEST PUSH1 0x0 PUSH1 0x20 DUP3 ADD SWAP1 POP PUSH2 0x18A PUSH1 0x0 DUP4 ADD DUP5 PUSH2 0x166 JUMP JUMPDEST SWAP3 SWAP2 POP POP JUMP JUMPDEST PUSH1 0x0 PUSH1 0x40 MLOAD SWAP1 POP SWAP1 JUMP JUMPDEST PUSH1 0x0 DUP1 REVERT JUMPDEST PUSH1 0x0 DUP1 REVERT JUMPDEST PUSH2 0x1AD DUP2 PUSH2 0x15C JUMP JUMPDEST DUP2 EQ PUSH2 0x1B8 JUMPI PUSH1 0x0 DUP1 REVERT JUMPDEST POP JUMP JUMPDEST PUSH1 0x0 DUP2 CALLDATALOAD SWAP1 POP PUSH2 0x1CA DUP2 PUSH2 0x1A4 JUMP JUMPDEST SWAP3 SWAP2 POP POP JUMP JUMPDEST PUSH1 0x0 PUSH20 0xFFFFFFFFFFFFFFFFFFFFFFFFFFFFFFFFFFFFFFFF DUP3 AND SWAP1 POP SWAP2 SWAP1 POP JUMP JUMPDEST PUSH1 0x0 PUSH2 0x1FB DUP3 PUSH2 0x1D0 JUMP JUMPDEST SWAP1 POP SWAP2 SWAP1 POP JUMP JUMPDEST PUSH2 0x20B DUP2 PUSH2 0x1F0 JUMP JUMPDEST DUP2 EQ PUSH2 0x216 JUMPI PUSH1 0x0 DUP1 REVERT JUMPDEST POP JUMP JUMPDEST PUSH1 0x0 DUP2 CALLDATALOAD SWAP1 POP PUSH2 0x228 DUP2 PUSH2 0x202 JUMP JUMPDEST SWAP3 SWAP2 POP POP JUMP JUMPDEST PUSH1 0x0 DUP2 ISZERO ISZERO SWAP1 POP SWAP2 SWAP1 POP JUMP JUMPDEST PUSH2 0x243 DUP2 PUSH2 0x22E JUMP JUMPDEST DUP2 EQ PUSH2 0x24E JUMPI PUSH1 0x0 DUP1 REVERT JUMPDEST POP JUMP JUMPDEST PUSH1 0x0 DUP2 CALLDATALOAD SWAP1 POP PUSH2 0x260 DUP2 PUSH2 0x23A JUMP JUMPDEST SWAP3 SWAP2 POP POP JUMP JUMPDEST PUSH1 0x0 DUP1 REVERT JUMPDEST PUSH1 0x0 DUP1 REVERT JUMPDEST PUSH1 0x0 PUSH1 0x1F NOT PUSH1 0x1F DUP4 ADD AND SWAP1 POP SWAP2 SWAP1 POP JUMP JUMPDEST PUSH32 0x4E487B7100000000000000000000000000000000000000000000000000000000 PUSH1 0x0 MSTORE PUSH1 0x41 PUSH1 0x4 MSTORE PUSH1 0x24 PUSH1 0x0 REVERT JUMPDEST PUSH2 0x2B9 DUP3 PUSH2 0x270 JUMP JUMPDEST DUP2 ADD DUP2 DUP2 LT PUSH8 0xFFFFFFFFFFFFFFFF DUP3 GT OR ISZERO PUSH2 0x2D8 JUMPI PUSH2 0x2D7 PUSH2 0x281 JUMP JUMPDEST JUMPDEST DUP1 PUSH1 0x40 MSTORE POP POP POP JUMP JUMPDEST PUSH1 0x0 PUSH2 0x2EB PUSH2 0x190 JUMP JUMPDEST SWAP1 POP PUSH2 0x2F7 DUP3 DUP3 PUSH2 0x2B0 JUMP JUMPDEST SWAP2 SWAP1 POP JUMP JUMPDEST PUSH1 0x0 PUSH8 0xFFFFFFFFFFFFFFFF DUP3 GT ISZERO PUSH2 0x317 JUMPI PUSH2 0x316 PUSH2 0x281 JUMP JUMPDEST JUMPDEST PUSH2 0x320 DUP3 PUSH2 0x270 JUMP JUMPDEST SWAP1 POP PUSH1 0x20 DUP2 ADD SWAP1 POP SWAP2 SWAP1 POP JUMP JUMPDEST DUP3 DUP2 DUP4 CALLDATACOPY PUSH1 0x0 DUP4 DUP4 ADD MSTORE POP POP POP JUMP JUMPDEST PUSH1 0x0 PUSH2 0x34F PUSH2 0x34A DUP5 PUSH2 0x2FC JUMP JUMPDEST PUSH2 0x2E1 JUMP JUMPDEST SWAP1 POP DUP3 DUP2 MSTORE PUSH1 0x20 DUP2 ADD DUP5 DUP5 DUP5 ADD GT ISZERO PUSH2 0x36B JUMPI PUSH2 0x36A PUSH2 0x26B JUMP JUMPDEST JUMPDEST PUSH2 0x376 DUP5 DUP3 DUP6 PUSH2 0x32D JUMP JUMPDEST POP SWAP4 SWAP3 POP POP POP JUMP JUMPDEST PUSH1 0x0 DUP3 PUSH1 0x1F DUP4 ADD SLT PUSH2 0x393 JUMPI PUSH2 0x392 PUSH2 0x266 JUMP JUMPDEST JUMPDEST DUP2 CALLDATALOAD PUSH2 0x3A3 DUP5 DUP3 PUSH1 0x20 DUP7 ADD PUSH2 0x33C JUMP JUMPDEST SWAP2 POP POP SWAP3 SWAP2 POP POP JUMP JUMPDEST PUSH1 0x0 DUP1 PUSH1 0x0 DUP1 PUSH1 0x0 DUP1 PUSH1 0xC0 DUP8 DUP10 SUB SLT ISZERO PUSH2 0x3C9 JUMPI PUSH2 0x3C8 PUSH2 0x19A JUMP JUMPDEST JUMPDEST PUSH1 0x0 PUSH2 0x3D7 DUP10 DUP3 DUP11 ADD PUSH2 0x1BB JUMP JUMPDEST SWAP7 POP POP PUSH1 0x20 PUSH2 0x3E8 DUP10 DUP3 DUP11 ADD PUSH2 0x1BB JUMP JUMPDEST SWAP6 POP POP PUSH1 0x40 PUSH2 0x3F9 DUP10 DUP3 DUP11 ADD PUSH2 0x1BB JUMP JUMPDEST SWAP5 POP POP PUSH1 0x60 PUSH2 0x40A DUP10 DUP3 DUP11 ADD PUSH2 0x219 JUMP JUMPDEST SWAP4 POP POP PUSH1 0x80 PUSH2 0x41B DUP10 DUP3 DUP11 ADD PUSH2 0x251 JUMP JUMPDEST SWAP3 POP POP PUSH1 0xA0 DUP8 ADD CALLDATALOAD PUSH8 0xFFFFFFFFFFFFFFFF DUP2 GT ISZERO PUSH2 0x43C JUMPI PUSH2 0x43B PUSH2 0x19F JUMP JUMPDEST JUMPDEST PUSH2 0x448 DUP10 DUP3 DUP11 ADD PUSH2 0x37E JUMP JUMPDEST SWAP2 POP POP SWAP3 SWAP6 POP SWAP3 SWAP6 POP SWAP3 SWAP6 JUMP INVALID LOG2 PUSH5 0x6970667358 0x22 SLT KECCAK256 DUP5 0xA6 0xC1 SWAP7 0xF6 SWAP4 0xE5 0xCC DUP14 0xAC PUSH15 0x44C688E6AB126DFDABD7EFCB825D21 0xE8 0xAE CODESIZE DUP1 0xCF PUSH13 0x64736F6C634300080D00330000 "
				},
				"gasEstimates": {
					"creation": {
						"codeDepositCost": "232600",
						"executionCost": "275",
						"totalCost": "232875"
					},
					"external": {
						"callFunc()": "428",
						"callFunctionWithKeyValue()": "472",
						"someFunctionWithManyInputs(uint256,uint256,uint256,address,bool,string)": "infinite"
					}
				},
				"methodIdentifiers": {
					"callFunc()": "9a7846b9",
					"callFunctionWithKeyValue()": "e9d47c4a",
					"someFunctionWithManyInputs(uint256,uint256,uint256,address,bool,string)": "d889d5bb"
				}
			},
			"storageLayout": {
				"storage": [],
				"types": null
			},
			"userdoc": {
				"kind": "user",
				"methods": {},
				"version": 1
			}
		}
	}
}