{
	"assertKeyword.sol": {
		"AssertStatement": {
			"abi": [
				{
					"inputs": [
						{
							"internalType": "uint256",
							"name": "_num1",
							"type": "uint256"
						},
						{
							"internalType": "uint256",
							"name": "_num2",
							"type": "uint256"
						}
					],
					"name": "checkOverFlow",
					"outputs": [],
					"stateMutability": "nonpayable",
					"type": "function"
				},
				{
					"inputs": [],
					"name": "getResult",
					"outputs": [
						{
							"internalType": "string",
							"name": "",
							"type": "string"
						}
					],
					"stateMutability": "view",
					"type": "function"
				},
				{
					"inputs": [],
					"name": "result",
					"outputs": [
						{
							"internalType": "bool",
							"name": "",
							"type": "bool"
						}
					],
					"stateMutability": "view",
					"type": "function"
				}
			],
			"devdoc": {
				"kind": "dev",
				"methods": {},
				"version": 1
			},
			"evm": {
				"assembly": "    /* \"assertKeyword.sol\":61:482  contract AssertStatement{... */\n  mstore(0x40, 0x80)\n  callvalue\n  dup1\n  iszero\n  tag_1\n  jumpi\n  0x00\n  dup1\n  revert\ntag_1:\n  pop\n  dataSize(sub_0)\n  dup1\n  dataOffset(sub_0)\n  0x00\n  codecopy\n  0x00\n  return\nstop\n\nsub_0: assembly {\n        /* \"assertKeyword.sol\":61:482  contract AssertStatement{... */\n      mstore(0x40, 0x80)\n      callvalue\n      dup1\n      iszero\n      tag_1\n      jumpi\n      0x00\n      dup1\n      revert\n    tag_1:\n      pop\n      jumpi(tag_2, lt(calldatasize, 0x04))\n      shr(0xe0, calldataload(0x00))\n      dup1\n      0x0bfb0686\n      eq\n      tag_3\n      jumpi\n      dup1\n      0x65372147\n      eq\n      tag_4\n      jumpi\n      dup1\n      0xde292789\n      eq\n      tag_5\n      jumpi\n    tag_2:\n      0x00\n      dup1\n      revert\n        /* \"assertKeyword.sol\":120:273  function checkOverFlow(uint256 _num1, uint256 _num2) public{... */\n    tag_3:\n      tag_6\n      0x04\n      dup1\n      calldatasize\n      sub\n      dup2\n      add\n      swap1\n      tag_7\n      swap2\n      swap1\n      tag_8\n      jump\t// in\n    tag_7:\n      tag_9\n      jump\t// in\n    tag_6:\n      stop\n        /* \"assertKeyword.sol\":92:111  bool public  result */\n    tag_4:\n      tag_10\n      tag_11\n      jump\t// in\n    tag_10:\n      mload(0x40)\n      tag_12\n      swap2\n      swap1\n      tag_13\n      jump\t// in\n    tag_12:\n      mload(0x40)\n      dup1\n      swap2\n      sub\n      swap1\n      return\n        /* \"assertKeyword.sol\":281:479  function getResult() public  view returns (string memory){... */\n    tag_5:\n      tag_14\n      tag_15\n      jump\t// in\n    tag_14:\n      mload(0x40)\n      tag_16\n      swap2\n      swap1\n      tag_17\n      jump\t// in\n    tag_16:\n      mload(0x40)\n      dup1\n      swap2\n      sub\n      swap1\n      return\n        /* \"assertKeyword.sol\":120:273  function checkOverFlow(uint256 _num1, uint256 _num2) public{... */\n    tag_9:\n        /* \"assertKeyword.sol\":190:201  uint256 sum */\n      0x00\n        /* \"assertKeyword.sol\":210:215  _num2 */\n      dup2\n        /* \"assertKeyword.sol\":203:208  _num1 */\n      dup4\n        /* \"assertKeyword.sol\":203:215  _num1 +_num2 */\n      tag_19\n      swap2\n      swap1\n      tag_20\n      jump\t// in\n    tag_19:\n        /* \"assertKeyword.sol\":190:215  uint256 sum= _num1 +_num2 */\n      swap1\n      pop\n        /* \"assertKeyword.sol\":238:241  255 */\n      0xff\n        /* \"assertKeyword.sol\":233:236  sum */\n      dup2\n        /* \"assertKeyword.sol\":233:241  sum<=255 */\n      gt\n      iszero\n        /* \"assertKeyword.sol\":226:242  assert(sum<=255) */\n      tag_21\n      jumpi\n      tag_22\n      tag_23\n      jump\t// in\n    tag_22:\n    tag_21:\n        /* \"assertKeyword.sol\":261:265  true */\n      0x01\n        /* \"assertKeyword.sol\":253:259  result */\n      0x00\n      dup1\n        /* \"assertKeyword.sol\":253:265  result= true */\n      0x0100\n      exp\n      dup2\n      sload\n      dup2\n      0xff\n      mul\n      not\n      and\n      swap1\n      dup4\n      iszero\n      iszero\n      mul\n      or\n      swap1\n      sstore\n      pop\n        /* \"assertKeyword.sol\":179:273  {... */\n      pop\n        /* \"assertKeyword.sol\":120:273  function checkOverFlow(uint256 _num1, uint256 _num2) public{... */\n      pop\n      pop\n      jump\t// out\n        /* \"assertKeyword.sol\":92:111  bool public  result */\n    tag_11:\n      0x00\n      dup1\n      sload\n      swap1\n      0x0100\n      exp\n      swap1\n      div\n      0xff\n      and\n      dup2\n      jump\t// out\n        /* \"assertKeyword.sol\":281:479  function getResult() public  view returns (string memory){... */\n    tag_15:\n        /* \"assertKeyword.sol\":324:337  string memory */\n      0x60\n        /* \"assertKeyword.sol\":361:365  true */\n      0x01\n        /* \"assertKeyword.sol\":352:365  result== true */\n      iszero\n      iszero\n        /* \"assertKeyword.sol\":352:358  result */\n      0x00\n      dup1\n      sload\n      swap1\n      0x0100\n      exp\n      swap1\n      div\n      0xff\n      and\n        /* \"assertKeyword.sol\":352:365  result== true */\n      iszero\n      iszero\n      sub\n        /* \"assertKeyword.sol\":349:470  if(result== true){... */\n      tag_25\n      jumpi\n        /* \"assertKeyword.sol\":381:402  return  \"No overFlow\" */\n      mload(0x40)\n      dup1\n      0x40\n      add\n      0x40\n      mstore\n      dup1\n      0x0b\n      dup2\n      mstore\n      0x20\n      add\n      0x4e6f206f766572466c6f77000000000000000000000000000000000000000000\n      dup2\n      mstore\n      pop\n      swap1\n      pop\n      jump(tag_24)\n        /* \"assertKeyword.sol\":349:470  if(result== true){... */\n    tag_25:\n        /* \"assertKeyword.sol\":433:458  return  \"Overflow Exists\" */\n      mload(0x40)\n      dup1\n      0x40\n      add\n      0x40\n      mstore\n      dup1\n      0x0f\n      dup2\n      mstore\n      0x20\n      add\n      0x4f766572666c6f77204578697374730000000000000000000000000000000000\n      dup2\n      mstore\n      pop\n      swap1\n      pop\n        /* \"assertKeyword.sol\":281:479  function getResult() public  view returns (string memory){... */\n    tag_24:\n      swap1\n      jump\t// out\n        /* \"#utility.yul\":88:205   */\n    tag_28:\n        /* \"#utility.yul\":197:198   */\n      0x00\n        /* \"#utility.yul\":194:195   */\n      dup1\n        /* \"#utility.yul\":187:199   */\n      revert\n        /* \"#utility.yul\":334:411   */\n    tag_30:\n        /* \"#utility.yul\":371:378   */\n      0x00\n        /* \"#utility.yul\":400:405   */\n      dup2\n        /* \"#utility.yul\":389:405   */\n      swap1\n      pop\n        /* \"#utility.yul\":334:411   */\n      swap2\n      swap1\n      pop\n      jump\t// out\n        /* \"#utility.yul\":417:539   */\n    tag_31:\n        /* \"#utility.yul\":490:514   */\n      tag_47\n        /* \"#utility.yul\":508:513   */\n      dup2\n        /* \"#utility.yul\":490:514   */\n      tag_30\n      jump\t// in\n    tag_47:\n        /* \"#utility.yul\":483:488   */\n      dup2\n        /* \"#utility.yul\":480:515   */\n      eq\n        /* \"#utility.yul\":470:533   */\n      tag_48\n      jumpi\n        /* \"#utility.yul\":529:530   */\n      0x00\n        /* \"#utility.yul\":526:527   */\n      dup1\n        /* \"#utility.yul\":519:531   */\n      revert\n        /* \"#utility.yul\":470:533   */\n    tag_48:\n        /* \"#utility.yul\":417:539   */\n      pop\n      jump\t// out\n        /* \"#utility.yul\":545:684   */\n    tag_32:\n        /* \"#utility.yul\":591:596   */\n      0x00\n        /* \"#utility.yul\":629:635   */\n      dup2\n        /* \"#utility.yul\":616:636   */\n      calldataload\n        /* \"#utility.yul\":607:636   */\n      swap1\n      pop\n        /* \"#utility.yul\":645:678   */\n      tag_50\n        /* \"#utility.yul\":672:677   */\n      dup2\n        /* \"#utility.yul\":645:678   */\n      tag_31\n      jump\t// in\n    tag_50:\n        /* \"#utility.yul\":545:684   */\n      swap3\n      swap2\n      pop\n      pop\n      jump\t// out\n        /* \"#utility.yul\":690:1164   */\n    tag_8:\n        /* \"#utility.yul\":758:764   */\n      0x00\n        /* \"#utility.yul\":766:772   */\n      dup1\n        /* \"#utility.yul\":815:817   */\n      0x40\n        /* \"#utility.yul\":803:812   */\n      dup4\n        /* \"#utility.yul\":794:801   */\n      dup6\n        /* \"#utility.yul\":790:813   */\n      sub\n        /* \"#utility.yul\":786:818   */\n      slt\n        /* \"#utility.yul\":783:902   */\n      iszero\n      tag_52\n      jumpi\n        /* \"#utility.yul\":821:900   */\n      tag_53\n      tag_28\n      jump\t// in\n    tag_53:\n        /* \"#utility.yul\":783:902   */\n    tag_52:\n        /* \"#utility.yul\":941:942   */\n      0x00\n        /* \"#utility.yul\":966:1019   */\n      tag_54\n        /* \"#utility.yul\":1011:1018   */\n      dup6\n        /* \"#utility.yul\":1002:1008   */\n      dup3\n        /* \"#utility.yul\":991:1000   */\n      dup7\n        /* \"#utility.yul\":987:1009   */\n      add\n        /* \"#utility.yul\":966:1019   */\n      tag_32\n      jump\t// in\n    tag_54:\n        /* \"#utility.yul\":956:1019   */\n      swap3\n      pop\n        /* \"#utility.yul\":912:1029   */\n      pop\n        /* \"#utility.yul\":1068:1070   */\n      0x20\n        /* \"#utility.yul\":1094:1147   */\n      tag_55\n        /* \"#utility.yul\":1139:1146   */\n      dup6\n        /* \"#utility.yul\":1130:1136   */\n      dup3\n        /* \"#utility.yul\":1119:1128   */\n      dup7\n        /* \"#utility.yul\":1115:1137   */\n      add\n        /* \"#utility.yul\":1094:1147   */\n      tag_32\n      jump\t// in\n    tag_55:\n        /* \"#utility.yul\":1084:1147   */\n      swap2\n      pop\n        /* \"#utility.yul\":1039:1157   */\n      pop\n        /* \"#utility.yul\":690:1164   */\n      swap3\n      pop\n      swap3\n      swap1\n      pop\n      jump\t// out\n        /* \"#utility.yul\":1170:1260   */\n    tag_33:\n        /* \"#utility.yul\":1204:1211   */\n      0x00\n        /* \"#utility.yul\":1247:1252   */\n      dup2\n        /* \"#utility.yul\":1240:1253   */\n      iszero\n        /* \"#utility.yul\":1233:1254   */\n      iszero\n        /* \"#utility.yul\":1222:1254   */\n      swap1\n      pop\n        /* \"#utility.yul\":1170:1260   */\n      swap2\n      swap1\n      pop\n      jump\t// out\n        /* \"#utility.yul\":1266:1375   */\n    tag_34:\n        /* \"#utility.yul\":1347:1368   */\n      tag_58\n        /* \"#utility.yul\":1362:1367   */\n      dup2\n        /* \"#utility.yul\":1347:1368   */\n      tag_33\n      jump\t// in\n    tag_58:\n        /* \"#utility.yul\":1342:1345   */\n      dup3\n        /* \"#utility.yul\":1335:1369   */\n      mstore\n        /* \"#utility.yul\":1266:1375   */\n      pop\n      pop\n      jump\t// out\n        /* \"#utility.yul\":1381:1591   */\n    tag_13:\n        /* \"#utility.yul\":1468:1472   */\n      0x00\n        /* \"#utility.yul\":1506:1508   */\n      0x20\n        /* \"#utility.yul\":1495:1504   */\n      dup3\n        /* \"#utility.yul\":1491:1509   */\n      add\n        /* \"#utility.yul\":1483:1509   */\n      swap1\n      pop\n        /* \"#utility.yul\":1519:1584   */\n      tag_60\n        /* \"#utility.yul\":1581:1582   */\n      0x00\n        /* \"#utility.yul\":1570:1579   */\n      dup4\n        /* \"#utility.yul\":1566:1583   */\n      add\n        /* \"#utility.yul\":1557:1563   */\n      dup5\n        /* \"#utility.yul\":1519:1584   */\n      tag_34\n      jump\t// in\n    tag_60:\n        /* \"#utility.yul\":1381:1591   */\n      swap3\n      swap2\n      pop\n      pop\n      jump\t// out\n        /* \"#utility.yul\":1597:1696   */\n    tag_35:\n        /* \"#utility.yul\":1649:1655   */\n      0x00\n        /* \"#utility.yul\":1683:1688   */\n      dup2\n        /* \"#utility.yul\":1677:1689   */\n      mload\n        /* \"#utility.yul\":1667:1689   */\n      swap1\n      pop\n        /* \"#utility.yul\":1597:1696   */\n      swap2\n      swap1\n      pop\n      jump\t// out\n        /* \"#utility.yul\":1702:1871   */\n    tag_36:\n        /* \"#utility.yul\":1786:1797   */\n      0x00\n        /* \"#utility.yul\":1820:1826   */\n      dup3\n        /* \"#utility.yul\":1815:1818   */\n      dup3\n        /* \"#utility.yul\":1808:1827   */\n      mstore\n        /* \"#utility.yul\":1860:1864   */\n      0x20\n        /* \"#utility.yul\":1855:1858   */\n      dup3\n        /* \"#utility.yul\":1851:1865   */\n      add\n        /* \"#utility.yul\":1836:1865   */\n      swap1\n      pop\n        /* \"#utility.yul\":1702:1871   */\n      swap3\n      swap2\n      pop\n      pop\n      jump\t// out\n        /* \"#utility.yul\":1877:2016   */\n    tag_37:\n        /* \"#utility.yul\":1966:1972   */\n      dup3\n        /* \"#utility.yul\":1961:1964   */\n      dup2\n        /* \"#utility.yul\":1956:1959   */\n      dup4\n        /* \"#utility.yul\":1950:1973   */\n      mcopy\n        /* \"#utility.yul\":2007:2008   */\n      0x00\n        /* \"#utility.yul\":1998:2004   */\n      dup4\n        /* \"#utility.yul\":1993:1996   */\n      dup4\n        /* \"#utility.yul\":1989:2005   */\n      add\n        /* \"#utility.yul\":1982:2009   */\n      mstore\n        /* \"#utility.yul\":1877:2016   */\n      pop\n      pop\n      pop\n      jump\t// out\n        /* \"#utility.yul\":2022:2124   */\n    tag_38:\n        /* \"#utility.yul\":2063:2069   */\n      0x00\n        /* \"#utility.yul\":2114:2116   */\n      0x1f\n        /* \"#utility.yul\":2110:2117   */\n      not\n        /* \"#utility.yul\":2105:2107   */\n      0x1f\n        /* \"#utility.yul\":2098:2103   */\n      dup4\n        /* \"#utility.yul\":2094:2108   */\n      add\n        /* \"#utility.yul\":2090:2118   */\n      and\n        /* \"#utility.yul\":2080:2118   */\n      swap1\n      pop\n        /* \"#utility.yul\":2022:2124   */\n      swap2\n      swap1\n      pop\n      jump\t// out\n        /* \"#utility.yul\":2130:2507   */\n    tag_39:\n        /* \"#utility.yul\":2218:2221   */\n      0x00\n        /* \"#utility.yul\":2246:2285   */\n      tag_66\n        /* \"#utility.yul\":2279:2284   */\n      dup3\n        /* \"#utility.yul\":2246:2285   */\n      tag_35\n      jump\t// in\n    tag_66:\n        /* \"#utility.yul\":2301:2372   */\n      tag_67\n        /* \"#utility.yul\":2365:2371   */\n      dup2\n        /* \"#utility.yul\":2360:2363   */\n      dup6\n        /* \"#utility.yul\":2301:2372   */\n      tag_36\n      jump\t// in\n    tag_67:\n        /* \"#utility.yul\":2294:2372   */\n      swap4\n      pop\n        /* \"#utility.yul\":2381:2446   */\n      tag_68\n        /* \"#utility.yul\":2439:2445   */\n      dup2\n        /* \"#utility.yul\":2434:2437   */\n      dup6\n        /* \"#utility.yul\":2427:2431   */\n      0x20\n        /* \"#utility.yul\":2420:2425   */\n      dup7\n        /* \"#utility.yul\":2416:2432   */\n      add\n        /* \"#utility.yul\":2381:2446   */\n      tag_37\n      jump\t// in\n    tag_68:\n        /* \"#utility.yul\":2471:2500   */\n      tag_69\n        /* \"#utility.yul\":2493:2499   */\n      dup2\n        /* \"#utility.yul\":2471:2500   */\n      tag_38\n      jump\t// in\n    tag_69:\n        /* \"#utility.yul\":2466:2469   */\n      dup5\n        /* \"#utility.yul\":2462:2501   */\n      add\n        /* \"#utility.yul\":2455:2501   */\n      swap2\n      pop\n        /* \"#utility.yul\":2222:2507   */\n      pop\n        /* \"#utility.yul\":2130:2507   */\n      swap3\n      swap2\n      pop\n      pop\n      jump\t// out\n        /* \"#utility.yul\":2513:2826   */\n    tag_17:\n        /* \"#utility.yul\":2626:2630   */\n      0x00\n        /* \"#utility.yul\":2664:2666   */\n      0x20\n        /* \"#utility.yul\":2653:2662   */\n      dup3\n        /* \"#utility.yul\":2649:2667   */\n      add\n        /* \"#utility.yul\":2641:2667   */\n      swap1\n      pop\n        /* \"#utility.yul\":2713:2722   */\n      dup2\n        /* \"#utility.yul\":2707:2711   */\n      dup2\n        /* \"#utility.yul\":2703:2723   */\n      sub\n        /* \"#utility.yul\":2699:2700   */\n      0x00\n        /* \"#utility.yul\":2688:2697   */\n      dup4\n        /* \"#utility.yul\":2684:2701   */\n      add\n        /* \"#utility.yul\":2677:2724   */\n      mstore\n        /* \"#utility.yul\":2741:2819   */\n      tag_71\n        /* \"#utility.yul\":2814:2818   */\n      dup2\n        /* \"#utility.yul\":2805:2811   */\n      dup5\n        /* \"#utility.yul\":2741:2819   */\n      tag_39\n      jump\t// in\n    tag_71:\n        /* \"#utility.yul\":2733:2819   */\n      swap1\n      pop\n        /* \"#utility.yul\":2513:2826   */\n      swap3\n      swap2\n      pop\n      pop\n      jump\t// out\n        /* \"#utility.yul\":2832:3012   */\n    tag_40:\n        /* \"#utility.yul\":2880:2957   */\n      0x4e487b7100000000000000000000000000000000000000000000000000000000\n        /* \"#utility.yul\":2877:2878   */\n      0x00\n        /* \"#utility.yul\":2870:2958   */\n      mstore\n        /* \"#utility.yul\":2977:2981   */\n      0x11\n        /* \"#utility.yul\":2974:2975   */\n      0x04\n        /* \"#utility.yul\":2967:2982   */\n      mstore\n        /* \"#utility.yul\":3001:3005   */\n      0x24\n        /* \"#utility.yul\":2998:2999   */\n      0x00\n        /* \"#utility.yul\":2991:3006   */\n      revert\n        /* \"#utility.yul\":3018:3209   */\n    tag_20:\n        /* \"#utility.yul\":3058:3061   */\n      0x00\n        /* \"#utility.yul\":3077:3097   */\n      tag_74\n        /* \"#utility.yul\":3095:3096   */\n      dup3\n        /* \"#utility.yul\":3077:3097   */\n      tag_30\n      jump\t// in\n    tag_74:\n        /* \"#utility.yul\":3072:3097   */\n      swap2\n      pop\n        /* \"#utility.yul\":3111:3131   */\n      tag_75\n        /* \"#utility.yul\":3129:3130   */\n      dup4\n        /* \"#utility.yul\":3111:3131   */\n      tag_30\n      jump\t// in\n    tag_75:\n        /* \"#utility.yul\":3106:3131   */\n      swap3\n      pop\n        /* \"#utility.yul\":3154:3155   */\n      dup3\n        /* \"#utility.yul\":3151:3152   */\n      dup3\n        /* \"#utility.yul\":3147:3156   */\n      add\n        /* \"#utility.yul\":3140:3156   */\n      swap1\n      pop\n        /* \"#utility.yul\":3175:3178   */\n      dup1\n        /* \"#utility.yul\":3172:3173   */\n      dup3\n        /* \"#utility.yul\":3169:3179   */\n      gt\n        /* \"#utility.yul\":3166:3202   */\n      iszero\n      tag_76\n      jumpi\n        /* \"#utility.yul\":3182:3200   */\n      tag_77\n      tag_40\n      jump\t// in\n    tag_77:\n        /* \"#utility.yul\":3166:3202   */\n    tag_76:\n        /* \"#utility.yul\":3018:3209   */\n      swap3\n      swap2\n      pop\n      pop\n      jump\t// out\n        /* \"#utility.yul\":3215:3395   */\n    tag_23:\n        /* \"#utility.yul\":3263:3340   */\n      0x4e487b7100000000000000000000000000000000000000000000000000000000\n        /* \"#utility.yul\":3260:3261   */\n      0x00\n        /* \"#utility.yul\":3253:3341   */\n      mstore\n        /* \"#utility.yul\":3360:3364   */\n      0x01\n        /* \"#utility.yul\":3357:3358   */\n      0x04\n        /* \"#utility.yul\":3350:3365   */\n      mstore\n        /* \"#utility.yul\":3384:3388   */\n      0x24\n        /* \"#utility.yul\":3381:3382   */\n      0x00\n        /* \"#utility.yul\":3374:3389   */\n      revert\n\n    auxdata: 0xa264697066735822122016738a082992fe20b7b9be60e93567f57d843d1625f69f985ec828cfbd5998a364736f6c634300081a0033\n}\n",
				"bytecode": {
					"linkReferences": {},
					"object": "6080604052348015600e575f80fd5b506103788061001c5f395ff3fe608060405234801561000f575f80fd5b506004361061003f575f3560e01c80630bfb068614610043578063653721471461005f578063de2927891461007d575b5f80fd5b61005d600480360381019061005891906101b4565b61009b565b005b6100676100da565b604051610074919061020c565b60405180910390f35b6100856100ea565b6040516100929190610295565b60405180910390f35b5f81836100a891906102e2565b905060ff8111156100bc576100bb610315565b5b60015f806101000a81548160ff021916908315150217905550505050565b5f8054906101000a900460ff1681565b6060600115155f8054906101000a900460ff16151503610141576040518060400160405280600b81526020017f4e6f206f766572466c6f77000000000000000000000000000000000000000000815250905061017a565b6040518060400160405280600f81526020017f4f766572666c6f7720457869737473000000000000000000000000000000000081525090505b90565b5f80fd5b5f819050919050565b61019381610181565b811461019d575f80fd5b50565b5f813590506101ae8161018a565b92915050565b5f80604083850312156101ca576101c961017d565b5b5f6101d7858286016101a0565b92505060206101e8858286016101a0565b9150509250929050565b5f8115159050919050565b610206816101f2565b82525050565b5f60208201905061021f5f8301846101fd565b92915050565b5f81519050919050565b5f82825260208201905092915050565b8281835e5f83830152505050565b5f601f19601f8301169050919050565b5f61026782610225565b610271818561022f565b935061028181856020860161023f565b61028a8161024d565b840191505092915050565b5f6020820190508181035f8301526102ad818461025d565b905092915050565b7f4e487b71000000000000000000000000000000000000000000000000000000005f52601160045260245ffd5b5f6102ec82610181565b91506102f783610181565b925082820190508082111561030f5761030e6102b5565b5b92915050565b7f4e487b71000000000000000000000000000000000000000000000000000000005f52600160045260245ffdfea264697066735822122016738a082992fe20b7b9be60e93567f57d843d1625f69f985ec828cfbd5998a364736f6c634300081a0033",
					"opcodes": "PUSH1 0x80 PUSH1 0x40 MSTORE CALLVALUE DUP1 ISZERO PUSH1 0xE JUMPI PUSH0 DUP1 REVERT JUMPDEST POP PUSH2 0x378 DUP1 PUSH2 0x1C PUSH0 CODECOPY PUSH0 RETURN INVALID PUSH1 0x80 PUSH1 0x40 MSTORE CALLVALUE DUP1 ISZERO PUSH2 0xF JUMPI PUSH0 DUP1 REVERT JUMPDEST POP PUSH1 0x4 CALLDATASIZE LT PUSH2 0x3F JUMPI PUSH0 CALLDATALOAD PUSH1 0xE0 SHR DUP1 PUSH4 0xBFB0686 EQ PUSH2 0x43 JUMPI DUP1 PUSH4 0x65372147 EQ PUSH2 0x5F JUMPI DUP1 PUSH4 0xDE292789 EQ PUSH2 0x7D JUMPI JUMPDEST PUSH0 DUP1 REVERT JUMPDEST PUSH2 0x5D PUSH1 0x4 DUP1 CALLDATASIZE SUB DUP2 ADD SWAP1 PUSH2 0x58 SWAP2 SWAP1 PUSH2 0x1B4 JUMP JUMPDEST PUSH2 0x9B JUMP JUMPDEST STOP JUMPDEST PUSH2 0x67 PUSH2 0xDA JUMP JUMPDEST PUSH1 0x40 MLOAD PUSH2 0x74 SWAP2 SWAP1 PUSH2 0x20C JUMP JUMPDEST PUSH1 0x40 MLOAD DUP1 SWAP2 SUB SWAP1 RETURN JUMPDEST PUSH2 0x85 PUSH2 0xEA JUMP JUMPDEST PUSH1 0x40 MLOAD PUSH2 0x92 SWAP2 SWAP1 PUSH2 0x295 JUMP JUMPDEST PUSH1 0x40 MLOAD DUP1 SWAP2 SUB SWAP1 RETURN JUMPDEST PUSH0 DUP2 DUP4 PUSH2 0xA8 SWAP2 SWAP1 PUSH2 0x2E2 JUMP JUMPDEST SWAP1 POP PUSH1 0xFF DUP2 GT ISZERO PUSH2 0xBC JUMPI PUSH2 0xBB PUSH2 0x315 JUMP JUMPDEST JUMPDEST PUSH1 0x1 PUSH0 DUP1 PUSH2 0x100 EXP DUP2 SLOAD DUP2 PUSH1 0xFF MUL NOT AND SWAP1 DUP4 ISZERO ISZERO MUL OR SWAP1 SSTORE POP POP POP POP JUMP JUMPDEST PUSH0 DUP1 SLOAD SWAP1 PUSH2 0x100 EXP SWAP1 DIV PUSH1 0xFF AND DUP2 JUMP JUMPDEST PUSH1 0x60 PUSH1 0x1 ISZERO ISZERO PUSH0 DUP1 SLOAD SWAP1 PUSH2 0x100 EXP SWAP1 DIV PUSH1 0xFF AND ISZERO ISZERO SUB PUSH2 0x141 JUMPI PUSH1 0x40 MLOAD DUP1 PUSH1 0x40 ADD PUSH1 0x40 MSTORE DUP1 PUSH1 0xB DUP2 MSTORE PUSH1 0x20 ADD PUSH32 0x4E6F206F766572466C6F77000000000000000000000000000000000000000000 DUP2 MSTORE POP SWAP1 POP PUSH2 0x17A JUMP JUMPDEST PUSH1 0x40 MLOAD DUP1 PUSH1 0x40 ADD PUSH1 0x40 MSTORE DUP1 PUSH1 0xF DUP2 MSTORE PUSH1 0x20 ADD PUSH32 0x4F766572666C6F77204578697374730000000000000000000000000000000000 DUP2 MSTORE POP SWAP1 POP JUMPDEST SWAP1 JUMP JUMPDEST PUSH0 DUP1 REVERT JUMPDEST PUSH0 DUP2 SWAP1 POP SWAP2 SWAP1 POP JUMP JUMPDEST PUSH2 0x193 DUP2 PUSH2 0x181 JUMP JUMPDEST DUP2 EQ PUSH2 0x19D JUMPI PUSH0 DUP1 REVERT JUMPDEST POP JUMP JUMPDEST PUSH0 DUP2 CALLDATALOAD SWAP1 POP PUSH2 0x1AE DUP2 PUSH2 0x18A JUMP JUMPDEST SWAP3 SWAP2 POP POP JUMP JUMPDEST PUSH0 DUP1 PUSH1 0x40 DUP4 DUP6 SUB SLT ISZERO PUSH2 0x1CA JUMPI PUSH2 0x1C9 PUSH2 0x17D JUMP JUMPDEST JUMPDEST PUSH0 PUSH2 0x1D7 DUP6 DUP3 DUP7 ADD PUSH2 0x1A0 JUMP JUMPDEST SWAP3 POP POP PUSH1 0x20 PUSH2 0x1E8 DUP6 DUP3 DUP7 ADD PUSH2 0x1A0 JUMP JUMPDEST SWAP2 POP POP SWAP3 POP SWAP3 SWAP1 POP JUMP JUMPDEST PUSH0 DUP2 ISZERO ISZERO SWAP1 POP SWAP2 SWAP1 POP JUMP JUMPDEST PUSH2 0x206 DUP2 PUSH2 0x1F2 JUMP JUMPDEST DUP3 MSTORE POP POP JUMP JUMPDEST PUSH0 PUSH1 0x20 DUP3 ADD SWAP1 POP PUSH2 0x21F PUSH0 DUP4 ADD DUP5 PUSH2 0x1FD JUMP JUMPDEST SWAP3 SWAP2 POP POP JUMP JUMPDEST PUSH0 DUP2 MLOAD SWAP1 POP SWAP2 SWAP1 POP JUMP JUMPDEST PUSH0 DUP3 DUP3 MSTORE PUSH1 0x20 DUP3 ADD SWAP1 POP SWAP3 SWAP2 POP POP JUMP JUMPDEST DUP3 DUP2 DUP4 MCOPY PUSH0 DUP4 DUP4 ADD MSTORE POP POP POP JUMP JUMPDEST PUSH0 PUSH1 0x1F NOT PUSH1 0x1F DUP4 ADD AND SWAP1 POP SWAP2 SWAP1 POP JUMP JUMPDEST PUSH0 PUSH2 0x267 DUP3 PUSH2 0x225 JUMP JUMPDEST PUSH2 0x271 DUP2 DUP6 PUSH2 0x22F JUMP JUMPDEST SWAP4 POP PUSH2 0x281 DUP2 DUP6 PUSH1 0x20 DUP7 ADD PUSH2 0x23F JUMP JUMPDEST PUSH2 0x28A DUP2 PUSH2 0x24D JUMP JUMPDEST DUP5 ADD SWAP2 POP POP SWAP3 SWAP2 POP POP JUMP JUMPDEST PUSH0 PUSH1 0x20 DUP3 ADD SWAP1 POP DUP2 DUP2 SUB PUSH0 DUP4 ADD MSTORE PUSH2 0x2AD DUP2 DUP5 PUSH2 0x25D JUMP JUMPDEST SWAP1 POP SWAP3 SWAP2 POP POP JUMP JUMPDEST PUSH32 0x4E487B7100000000000000000000000000000000000000000000000000000000 PUSH0 MSTORE PUSH1 0x11 PUSH1 0x4 MSTORE PUSH1 0x24 PUSH0 REVERT JUMPDEST PUSH0 PUSH2 0x2EC DUP3 PUSH2 0x181 JUMP JUMPDEST SWAP2 POP PUSH2 0x2F7 DUP4 PUSH2 0x181 JUMP JUMPDEST SWAP3 POP DUP3 DUP3 ADD SWAP1 POP DUP1 DUP3 GT ISZERO PUSH2 0x30F JUMPI PUSH2 0x30E PUSH2 0x2B5 JUMP JUMPDEST JUMPDEST SWAP3 SWAP2 POP POP JUMP JUMPDEST PUSH32 0x4E487B7100000000000000000000000000000000000000000000000000000000 PUSH0 MSTORE PUSH1 0x1 PUSH1 0x4 MSTORE PUSH1 0x24 PUSH0 REVERT INVALID LOG2 PUSH5 0x6970667358 0x22 SLT KECCAK256 AND PUSH20 0x8A082992FE20B7B9BE60E93567F57D843D1625F6 SWAP16 SWAP9 MCOPY 0xC8 0x28 0xCF 0xBD MSIZE SWAP9 LOG3 PUSH5 0x736F6C6343 STOP ADDMOD BYTE STOP CALLER "
				},
				"gasEstimates": {
					"creation": {
						"codeDepositCost": "177600",
						"executionCost": "218",
						"totalCost": "177818"
					},
					"external": {
						"checkOverFlow(uint256,uint256)": "infinite",
						"getResult()": "infinite",
						"result()": "2463"
					}
				},
				"methodIdentifiers": {
					"checkOverFlow(uint256,uint256)": "0bfb0686",
					"getResult()": "de292789",
					"result()": "65372147"
				}
			},
			"storageLayout": {
				"storage": [
					{
						"astId": 3,
						"contract": "assertKeyword.sol:AssertStatement",
						"label": "result",
						"offset": 0,
						"slot": "0",
						"type": "t_bool"
					}
				],
				"types": {
					"t_bool": {
						"encoding": "inplace",
						"label": "bool",
						"numberOfBytes": "1"
					}
				}
			},
			"userdoc": {
				"kind": "user",
				"methods": {},
				"version": 1
			}
		}
	}
}