{
	"data": {
		"bytecode": {
			"linkReferences": {},
			"object": "608060405234801561000f575f80fd5b5060405161041f38038061041f833981810160405281019061003191906100c7565b805f819055504260048190555060074261004b919061011f565b6003819055506018603c806004546003546100669190610152565b61007091906101b2565b61007a91906101b2565b61008491906101b2565b600581905550506101e2565b5f80fd5b5f819050919050565b6100a681610094565b81146100b0575f80fd5b50565b5f815190506100c18161009d565b92915050565b5f602082840312156100dc576100db610090565b5b5f6100e9848285016100b3565b91505092915050565b7f4e487b71000000000000000000000000000000000000000000000000000000005f52601160045260245ffd5b5f61012982610094565b915061013483610094565b925082820190508082111561014c5761014b6100f2565b5b92915050565b5f61015c82610094565b915061016783610094565b925082820390508181111561017f5761017e6100f2565b5b92915050565b7f4e487b71000000000000000000000000000000000000000000000000000000005f52601260045260245ffd5b5f6101bc82610094565b91506101c783610094565b9250826101d7576101d6610185565b5b828204905092915050565b610230806101ef5f395ff3fe608060405234801561000f575f80fd5b5060043610610034575f3560e01c806367dd74ca14610038578063d321fe2914610068575b5f80fd5b610052600480360381019061004d9190610100565b610086565b60405161005f919061013a565b60405180910390f35b6100706100c0565b60405161007d919061013a565b60405180910390f35b5f60015f81548092919061009990610180565b91905055508160025f8282546100af91906101c7565b925050819055506001549050919050565b5f600254905090565b5f80fd5b5f819050919050565b6100df816100cd565b81146100e9575f80fd5b50565b5f813590506100fa816100d6565b92915050565b5f60208284031215610115576101146100c9565b5b5f610122848285016100ec565b91505092915050565b610134816100cd565b82525050565b5f60208201905061014d5f83018461012b565b92915050565b7f4e487b71000000000000000000000000000000000000000000000000000000005f52601160045260245ffd5b5f61018a826100cd565b91507fffffffffffffffffffffffffffffffffffffffffffffffffffffffffffffffff82036101bc576101bb610153565b5b600182019050919050565b5f6101d1826100cd565b91506101dc836100cd565b92508282019050808211156101f4576101f3610153565b5b9291505056fea264697066735822122028042f02d844a444245b25bc96d9c99083adc2aed3e157e96f19e3925b3f31c364736f6c634300081a0033",
			"opcodes": "PUSH1 0x80 PUSH1 0x40 MSTORE CALLVALUE DUP1 ISZERO PUSH2 0xF JUMPI PUSH0 DUP1 REVERT JUMPDEST POP PUSH1 0x40 MLOAD PUSH2 0x41F CODESIZE SUB DUP1 PUSH2 0x41F DUP4 CODECOPY DUP2 DUP2 ADD PUSH1 0x40 MSTORE DUP2 ADD SWAP1 PUSH2 0x31 SWAP2 SWAP1 PUSH2 0xC7 JUMP JUMPDEST DUP1 PUSH0 DUP2 SWAP1 SSTORE POP TIMESTAMP PUSH1 0x4 DUP2 SWAP1 SSTORE POP PUSH1 0x7 TIMESTAMP PUSH2 0x4B SWAP2 SWAP1 PUSH2 0x11F JUMP JUMPDEST PUSH1 0x3 DUP2 SWAP1 SSTORE POP PUSH1 0x18 PUSH1 0x3C DUP1 PUSH1 0x4 SLOAD PUSH1 0x3 SLOAD PUSH2 0x66 SWAP2 SWAP1 PUSH2 0x152 JUMP JUMPDEST PUSH2 0x70 SWAP2 SWAP1 PUSH2 0x1B2 JUMP JUMPDEST PUSH2 0x7A SWAP2 SWAP1 PUSH2 0x1B2 JUMP JUMPDEST PUSH2 0x84 SWAP2 SWAP1 PUSH2 0x1B2 JUMP JUMPDEST PUSH1 0x5 DUP2 SWAP1 SSTORE POP POP PUSH2 0x1E2 JUMP JUMPDEST PUSH0 DUP1 REVERT JUMPDEST PUSH0 DUP2 SWAP1 POP SWAP2 SWAP1 POP JUMP JUMPDEST PUSH2 0xA6 DUP2 PUSH2 0x94 JUMP JUMPDEST DUP2 EQ PUSH2 0xB0 JUMPI PUSH0 DUP1 REVERT JUMPDEST POP JUMP JUMPDEST PUSH0 DUP2 MLOAD SWAP1 POP PUSH2 0xC1 DUP2 PUSH2 0x9D JUMP JUMPDEST SWAP3 SWAP2 POP POP JUMP JUMPDEST PUSH0 PUSH1 0x20 DUP3 DUP5 SUB SLT ISZERO PUSH2 0xDC JUMPI PUSH2 0xDB PUSH2 0x90 JUMP JUMPDEST JUMPDEST PUSH0 PUSH2 0xE9 DUP5 DUP3 DUP6 ADD PUSH2 0xB3 JUMP JUMPDEST SWAP2 POP POP SWAP3 SWAP2 POP POP JUMP JUMPDEST PUSH32 0x4E487B7100000000000000000000000000000000000000000000000000000000 PUSH0 MSTORE PUSH1 0x11 PUSH1 0x4 MSTORE PUSH1 0x24 PUSH0 REVERT JUMPDEST PUSH0 PUSH2 0x129 DUP3 PUSH2 0x94 JUMP JUMPDEST SWAP2 POP PUSH2 0x134 DUP4 PUSH2 0x94 JUMP JUMPDEST SWAP3 POP DUP3 DUP3 ADD SWAP1 POP DUP1 DUP3 GT ISZERO PUSH2 0x14C JUMPI PUSH2 0x14B PUSH2 0xF2 JUMP JUMPDEST JUMPDEST SWAP3 SWAP2 POP POP JUMP JUMPDEST PUSH0 PUSH2 0x15C DUP3 PUSH2 0x94 JUMP JUMPDEST SWAP2 POP PUSH2 0x167 DUP4 PUSH2 0x94 JUMP JUMPDEST SWAP3 POP DUP3 DUP3 SUB SWAP1 POP DUP2 DUP2 GT ISZERO PUSH2 0x17F JUMPI PUSH2 0x17E PUSH2 0xF2 JUMP JUMPDEST JUMPDEST SWAP3 SWAP2 POP POP JUMP JUMPDEST PUSH32 0x4E487B7100000000000000000000000000000000000000000000000000000000 PUSH0 MSTORE PUSH1 0x12 PUSH1 0x4 MSTORE PUSH1 0x24 PUSH0 REVERT JUMPDEST PUSH0 PUSH2 0x1BC DUP3 PUSH2 0x94 JUMP JUMPDEST SWAP2 POP PUSH2 0x1C7 DUP4 PUSH2 0x94 JUMP JUMPDEST SWAP3 POP DUP3 PUSH2 0x1D7 JUMPI PUSH2 0x1D6 PUSH2 0x185 JUMP JUMPDEST JUMPDEST DUP3 DUP3 DIV SWAP1 POP SWAP3 SWAP2 POP POP JUMP JUMPDEST PUSH2 0x230 DUP1 PUSH2 0x1EF PUSH0 CODECOPY PUSH0 RETURN INVALID PUSH1 0x80 PUSH1 0x40 MSTORE CALLVALUE DUP1 ISZERO PUSH2 0xF JUMPI PUSH0 DUP1 REVERT JUMPDEST POP PUSH1 0x4 CALLDATASIZE LT PUSH2 0x34 JUMPI PUSH0 CALLDATALOAD PUSH1 0xE0 SHR DUP1 PUSH4 0x67DD74CA EQ PUSH2 0x38 JUMPI DUP1 PUSH4 0xD321FE29 EQ PUSH2 0x68 JUMPI JUMPDEST PUSH0 DUP1 REVERT JUMPDEST PUSH2 0x52 PUSH1 0x4 DUP1 CALLDATASIZE SUB DUP2 ADD SWAP1 PUSH2 0x4D SWAP2 SWAP1 PUSH2 0x100 JUMP JUMPDEST PUSH2 0x86 JUMP JUMPDEST PUSH1 0x40 MLOAD PUSH2 0x5F SWAP2 SWAP1 PUSH2 0x13A JUMP JUMPDEST PUSH1 0x40 MLOAD DUP1 SWAP2 SUB SWAP1 RETURN JUMPDEST PUSH2 0x70 PUSH2 0xC0 JUMP JUMPDEST PUSH1 0x40 MLOAD PUSH2 0x7D SWAP2 SWAP1 PUSH2 0x13A JUMP JUMPDEST PUSH1 0x40 MLOAD DUP1 SWAP2 SUB SWAP1 RETURN JUMPDEST PUSH0 PUSH1 0x1 PUSH0 DUP2 SLOAD DUP1 SWAP3 SWAP2 SWAP1 PUSH2 0x99 SWAP1 PUSH2 0x180 JUMP JUMPDEST SWAP2 SWAP1 POP SSTORE POP DUP2 PUSH1 0x2 PUSH0 DUP3 DUP3 SLOAD PUSH2 0xAF SWAP2 SWAP1 PUSH2 0x1C7 JUMP JUMPDEST SWAP3 POP POP DUP2 SWAP1 SSTORE POP PUSH1 0x1 SLOAD SWAP1 POP SWAP2 SWAP1 POP JUMP JUMPDEST PUSH0 PUSH1 0x2 SLOAD SWAP1 POP SWAP1 JUMP JUMPDEST PUSH0 DUP1 REVERT JUMPDEST PUSH0 DUP2 SWAP1 POP SWAP2 SWAP1 POP JUMP JUMPDEST PUSH2 0xDF DUP2 PUSH2 0xCD JUMP JUMPDEST DUP2 EQ PUSH2 0xE9 JUMPI PUSH0 DUP1 REVERT JUMPDEST POP JUMP JUMPDEST PUSH0 DUP2 CALLDATALOAD SWAP1 POP PUSH2 0xFA DUP2 PUSH2 0xD6 JUMP JUMPDEST SWAP3 SWAP2 POP POP JUMP JUMPDEST PUSH0 PUSH1 0x20 DUP3 DUP5 SUB SLT ISZERO PUSH2 0x115 JUMPI PUSH2 0x114 PUSH2 0xC9 JUMP JUMPDEST JUMPDEST PUSH0 PUSH2 0x122 DUP5 DUP3 DUP6 ADD PUSH2 0xEC JUMP JUMPDEST SWAP2 POP POP SWAP3 SWAP2 POP POP JUMP JUMPDEST PUSH2 0x134 DUP2 PUSH2 0xCD JUMP JUMPDEST DUP3 MSTORE POP POP JUMP JUMPDEST PUSH0 PUSH1 0x20 DUP3 ADD SWAP1 POP PUSH2 0x14D PUSH0 DUP4 ADD DUP5 PUSH2 0x12B JUMP JUMPDEST SWAP3 SWAP2 POP POP JUMP JUMPDEST PUSH32 0x4E487B7100000000000000000000000000000000000000000000000000000000 PUSH0 MSTORE PUSH1 0x11 PUSH1 0x4 MSTORE PUSH1 0x24 PUSH0 REVERT JUMPDEST PUSH0 PUSH2 0x18A DUP3 PUSH2 0xCD JUMP JUMPDEST SWAP2 POP PUSH32 0xFFFFFFFFFFFFFFFFFFFFFFFFFFFFFFFFFFFFFFFFFFFFFFFFFFFFFFFFFFFFFFFF DUP3 SUB PUSH2 0x1BC JUMPI PUSH2 0x1BB PUSH2 0x153 JUMP JUMPDEST JUMPDEST PUSH1 0x1 DUP3 ADD SWAP1 POP SWAP2 SWAP1 POP JUMP JUMPDEST PUSH0 PUSH2 0x1D1 DUP3 PUSH2 0xCD JUMP JUMPDEST SWAP2 POP PUSH2 0x1DC DUP4 PUSH2 0xCD JUMP JUMPDEST SWAP3 POP DUP3 DUP3 ADD SWAP1 POP DUP1 DUP3 GT ISZERO PUSH2 0x1F4 JUMPI PUSH2 0x1F3 PUSH2 0x153 JUMP JUMPDEST JUMPDEST SWAP3 SWAP2 POP POP JUMP INVALID LOG2 PUSH5 0x6970667358 0x22 SLT KECCAK256 0x28 DIV 0x2F MUL 0xD8 PREVRANDAO LOG4 PREVRANDAO 0x24 JUMPDEST 0x25 0xBC SWAP7 0xD9 0xC9 SWAP1 DUP4 0xAD 0xC2 0xAE 0xD3 0xE1 JUMPI 0xE9 PUSH16 0x19E3925B3F31C364736F6C634300081A STOP CALLER "
		},
		"gasEstimates": {
			"creation": {
				"codeDepositCost": "112000",
				"executionCost": "infinite",
				"totalCost": "infinite"
			},
			"external": {
				"buyTicket(uint256)": "infinite",
				"getAmount()": "2432"
			}
		},
		"methodIdentifiers": {
			"buyTicket(uint256)": "67dd74ca",
			"getAmount()": "d321fe29"
		}
	},
	"abi": [
		{
			"inputs": [
				{
					"internalType": "uint256",
					"name": "_ticketprice",
					"type": "uint256"
				}
			],
			"stateMutability": "nonpayable",
			"type": "constructor"
		},
		{
			"inputs": [
				{
					"internalType": "uint256",
					"name": "_value",
					"type": "uint256"
				}
			],
			"name": "buyTicket",
			"outputs": [
				{
					"internalType": "uint256",
					"name": "ticketId",
					"type": "uint256"
				}
			],
			"stateMutability": "nonpayable",
			"type": "function"
		},
		{
			"inputs": [],
			"name": "getAmount",
			"outputs": [
				{
					"internalType": "uint256",
					"name": "",
					"type": "uint256"
				}
			],
			"stateMutability": "view",
			"type": "function"
		}
	]
}